{
	".deps/giorno0.sol": {
		"SimpleMessenger": {
			"abi": [
				{
					"inputs": [
						{
							"internalType": "string",
							"name": "initialMessage",
							"type": "string"
						}
					],
					"stateMutability": "nonpayable",
					"type": "constructor"
				},
				{
					"anonymous": false,
					"inputs": [
						{
							"indexed": false,
							"internalType": "string",
							"name": "oldMessage",
							"type": "string"
						},
						{
							"indexed": false,
							"internalType": "string",
							"name": "newMessage",
							"type": "string"
						}
					],
					"name": "MessageChanged",
					"type": "event"
				},
				{
					"inputs": [],
					"name": "currentMessage",
					"outputs": [
						{
							"internalType": "string",
							"name": "",
							"type": "string"
						}
					],
					"stateMutability": "view",
					"type": "function"
				},
				{
					"inputs": [],
					"name": "helloConstant",
					"outputs": [
						{
							"internalType": "string",
							"name": "",
							"type": "string"
						}
					],
					"stateMutability": "pure",
					"type": "function"
				},
				{
					"inputs": [
						{
							"internalType": "string",
							"name": "newMessage",
							"type": "string"
						}
					],
					"name": "updateMessage",
					"outputs": [],
					"stateMutability": "nonpayable",
					"type": "function"
				}
			],
			"devdoc": {
				"author": "(tuo nome)",
				"events": {
					"MessageChanged(string,string)": {
						"params": {
							"newMessage": "Nuovo valore",
							"oldMessage": "Valore precedente"
						}
					}
				},
				"kind": "dev",
				"methods": {
					"constructor": {
						"params": {
							"initialMessage": "Messaggio iniziale salvato nello storage"
						}
					},
					"currentMessage()": {
						"returns": {
							"_0": "Il messaggio corrente"
						}
					},
					"updateMessage(string)": {
						"params": {
							"newMessage": "Il nuovo valore da registrare"
						}
					}
				},
				"stateVariables": {
					"_message": {
						"details": "Messaggio persistente (slot 0 dello storage)"
					}
				},
				"title": "SimpleMessenger – salva e aggiorna un messaggio sulla blockchain",
				"version": 1
			},
			"evm": {
				"assembly": "    /* \".deps/giorno0.sol\":247:2818  contract SimpleMessenger {... */\n  mstore(0x40, 0x80)\n    /* \".deps/giorno0.sol\":1386:1472  constructor(string memory initialMessage) {... */\n  callvalue\n  dup1\n  iszero\n  tag_1\n  jumpi\n  revert(0x00, 0x00)\ntag_1:\n  pop\n  mload(0x40)\n  sub(codesize, bytecodeSize)\n  dup1\n  bytecodeSize\n  dup4\n  codecopy\n  dup2\n  dup2\n  add\n  0x40\n  mstore\n  dup2\n  add\n  swap1\n  tag_2\n  swap2\n  swap1\n  tag_3\n  jump\t// in\ntag_2:\n    /* \".deps/giorno0.sol\":1450:1464  initialMessage */\n  dup1\n    /* \".deps/giorno0.sol\":1439:1447  _message */\n  0x00\n    /* \".deps/giorno0.sol\":1439:1464  _message = initialMessage */\n  swap1\n  dup2\n  tag_6\n  swap2\n  swap1\n  tag_7\n  jump\t// in\ntag_6:\n  pop\n    /* \".deps/giorno0.sol\":1386:1472  constructor(string memory initialMessage) {... */\n  pop\n    /* \".deps/giorno0.sol\":247:2818  contract SimpleMessenger {... */\n  jump(tag_8)\n    /* \"#utility.yul\":7:82   */\ntag_9:\n    /* \"#utility.yul\":40:46   */\n  0x00\n    /* \"#utility.yul\":73:75   */\n  0x40\n    /* \"#utility.yul\":67:76   */\n  mload\n    /* \"#utility.yul\":57:76   */\n  swap1\n  pop\n    /* \"#utility.yul\":7:82   */\n  swap1\n  jump\t// out\n    /* \"#utility.yul\":88:205   */\ntag_10:\n    /* \"#utility.yul\":197:198   */\n  0x00\n    /* \"#utility.yul\":194:195   */\n  0x00\n    /* \"#utility.yul\":187:199   */\n  revert\n    /* \"#utility.yul\":211:328   */\ntag_11:\n    /* \"#utility.yul\":320:321   */\n  0x00\n    /* \"#utility.yul\":317:318   */\n  0x00\n    /* \"#utility.yul\":310:322   */\n  revert\n    /* \"#utility.yul\":334:451   */\ntag_12:\n    /* \"#utility.yul\":443:444   */\n  0x00\n    /* \"#utility.yul\":440:441   */\n  0x00\n    /* \"#utility.yul\":433:445   */\n  revert\n    /* \"#utility.yul\":457:574   */\ntag_13:\n    /* \"#utility.yul\":566:567   */\n  0x00\n    /* \"#utility.yul\":563:564   */\n  0x00\n    /* \"#utility.yul\":556:568   */\n  revert\n    /* \"#utility.yul\":580:682   */\ntag_14:\n    /* \"#utility.yul\":621:627   */\n  0x00\n    /* \"#utility.yul\":672:674   */\n  0x1f\n    /* \"#utility.yul\":668:675   */\n  not\n    /* \"#utility.yul\":663:665   */\n  0x1f\n    /* \"#utility.yul\":656:661   */\n  dup4\n    /* \"#utility.yul\":652:666   */\n  add\n    /* \"#utility.yul\":648:676   */\n  and\n    /* \"#utility.yul\":638:676   */\n  swap1\n  pop\n    /* \"#utility.yul\":580:682   */\n  swap2\n  swap1\n  pop\n  jump\t// out\n    /* \"#utility.yul\":688:868   */\ntag_15:\n    /* \"#utility.yul\":736:813   */\n  0x4e487b7100000000000000000000000000000000000000000000000000000000\n    /* \"#utility.yul\":733:734   */\n  0x00\n    /* \"#utility.yul\":726:814   */\n  mstore\n    /* \"#utility.yul\":833:837   */\n  0x41\n    /* \"#utility.yul\":830:831   */\n  0x04\n    /* \"#utility.yul\":823:838   */\n  mstore\n    /* \"#utility.yul\":857:861   */\n  0x24\n    /* \"#utility.yul\":854:855   */\n  0x00\n    /* \"#utility.yul\":847:862   */\n  revert\n    /* \"#utility.yul\":874:1155   */\ntag_16:\n    /* \"#utility.yul\":957:984   */\n  tag_50\n    /* \"#utility.yul\":979:983   */\n  dup3\n    /* \"#utility.yul\":957:984   */\n  tag_14\n  jump\t// in\ntag_50:\n    /* \"#utility.yul\":949:955   */\n  dup2\n    /* \"#utility.yul\":945:985   */\n  add\n    /* \"#utility.yul\":1087:1093   */\n  dup2\n    /* \"#utility.yul\":1075:1085   */\n  dup2\n    /* \"#utility.yul\":1072:1094   */\n  lt\n    /* \"#utility.yul\":1051:1069   */\n  0xffffffffffffffff\n    /* \"#utility.yul\":1039:1049   */\n  dup3\n    /* \"#utility.yul\":1036:1070   */\n  gt\n    /* \"#utility.yul\":1033:1095   */\n  or\n    /* \"#utility.yul\":1030:1118   */\n  iszero\n  tag_51\n  jumpi\n    /* \"#utility.yul\":1098:1116   */\n  tag_52\n  tag_15\n  jump\t// in\ntag_52:\n    /* \"#utility.yul\":1030:1118   */\ntag_51:\n    /* \"#utility.yul\":1138:1148   */\n  dup1\n    /* \"#utility.yul\":1134:1136   */\n  0x40\n    /* \"#utility.yul\":1127:1149   */\n  mstore\n    /* \"#utility.yul\":917:1155   */\n  pop\n    /* \"#utility.yul\":874:1155   */\n  pop\n  pop\n  jump\t// out\n    /* \"#utility.yul\":1161:1290   */\ntag_17:\n    /* \"#utility.yul\":1195:1201   */\n  0x00\n    /* \"#utility.yul\":1222:1242   */\n  tag_54\n  tag_9\n  jump\t// in\ntag_54:\n    /* \"#utility.yul\":1212:1242   */\n  swap1\n  pop\n    /* \"#utility.yul\":1251:1284   */\n  tag_55\n    /* \"#utility.yul\":1279:1283   */\n  dup3\n    /* \"#utility.yul\":1271:1277   */\n  dup3\n    /* \"#utility.yul\":1251:1284   */\n  tag_16\n  jump\t// in\ntag_55:\n    /* \"#utility.yul\":1161:1290   */\n  swap2\n  swap1\n  pop\n  jump\t// out\n    /* \"#utility.yul\":1296:1604   */\ntag_18:\n    /* \"#utility.yul\":1358:1362   */\n  0x00\n    /* \"#utility.yul\":1448:1466   */\n  0xffffffffffffffff\n    /* \"#utility.yul\":1440:1446   */\n  dup3\n    /* \"#utility.yul\":1437:1467   */\n  gt\n    /* \"#utility.yul\":1434:1490   */\n  iszero\n  tag_57\n  jumpi\n    /* \"#utility.yul\":1470:1488   */\n  tag_58\n  tag_15\n  jump\t// in\ntag_58:\n    /* \"#utility.yul\":1434:1490   */\ntag_57:\n    /* \"#utility.yul\":1508:1537   */\n  tag_59\n    /* \"#utility.yul\":1530:1536   */\n  dup3\n    /* \"#utility.yul\":1508:1537   */\n  tag_14\n  jump\t// in\ntag_59:\n    /* \"#utility.yul\":1500:1537   */\n  swap1\n  pop\n    /* \"#utility.yul\":1592:1596   */\n  0x20\n    /* \"#utility.yul\":1586:1590   */\n  dup2\n    /* \"#utility.yul\":1582:1597   */\n  add\n    /* \"#utility.yul\":1574:1597   */\n  swap1\n  pop\n    /* \"#utility.yul\":1296:1604   */\n  swap2\n  swap1\n  pop\n  jump\t// out\n    /* \"#utility.yul\":1610:1749   */\ntag_19:\n    /* \"#utility.yul\":1699:1705   */\n  dup3\n    /* \"#utility.yul\":1694:1697   */\n  dup2\n    /* \"#utility.yul\":1689:1692   */\n  dup4\n    /* \"#utility.yul\":1683:1706   */\n  mcopy\n    /* \"#utility.yul\":1740:1741   */\n  0x00\n    /* \"#utility.yul\":1731:1737   */\n  dup4\n    /* \"#utility.yul\":1726:1729   */\n  dup4\n    /* \"#utility.yul\":1722:1738   */\n  add\n    /* \"#utility.yul\":1715:1742   */\n  mstore\n    /* \"#utility.yul\":1610:1749   */\n  pop\n  pop\n  pop\n  jump\t// out\n    /* \"#utility.yul\":1755:2189   */\ntag_20:\n    /* \"#utility.yul\":1844:1849   */\n  0x00\n    /* \"#utility.yul\":1869:1935   */\n  tag_62\n    /* \"#utility.yul\":1885:1934   */\n  tag_63\n    /* \"#utility.yul\":1927:1933   */\n  dup5\n    /* \"#utility.yul\":1885:1934   */\n  tag_18\n  jump\t// in\ntag_63:\n    /* \"#utility.yul\":1869:1935   */\n  tag_17\n  jump\t// in\ntag_62:\n    /* \"#utility.yul\":1860:1935   */\n  swap1\n  pop\n    /* \"#utility.yul\":1958:1964   */\n  dup3\n    /* \"#utility.yul\":1951:1956   */\n  dup2\n    /* \"#utility.yul\":1944:1965   */\n  mstore\n    /* \"#utility.yul\":1996:2000   */\n  0x20\n    /* \"#utility.yul\":1989:1994   */\n  dup2\n    /* \"#utility.yul\":1985:2001   */\n  add\n    /* \"#utility.yul\":2034:2037   */\n  dup5\n    /* \"#utility.yul\":2025:2031   */\n  dup5\n    /* \"#utility.yul\":2020:2023   */\n  dup5\n    /* \"#utility.yul\":2016:2032   */\n  add\n    /* \"#utility.yul\":2013:2038   */\n  gt\n    /* \"#utility.yul\":2010:2122   */\n  iszero\n  tag_64\n  jumpi\n    /* \"#utility.yul\":2041:2120   */\n  tag_65\n  tag_13\n  jump\t// in\ntag_65:\n    /* \"#utility.yul\":2010:2122   */\ntag_64:\n    /* \"#utility.yul\":2131:2183   */\n  tag_66\n    /* \"#utility.yul\":2176:2182   */\n  dup5\n    /* \"#utility.yul\":2171:2174   */\n  dup3\n    /* \"#utility.yul\":2166:2169   */\n  dup6\n    /* \"#utility.yul\":2131:2183   */\n  tag_19\n  jump\t// in\ntag_66:\n    /* \"#utility.yul\":1850:2189   */\n  pop\n    /* \"#utility.yul\":1755:2189   */\n  swap4\n  swap3\n  pop\n  pop\n  pop\n  jump\t// out\n    /* \"#utility.yul\":2209:2564   */\ntag_21:\n    /* \"#utility.yul\":2276:2281   */\n  0x00\n    /* \"#utility.yul\":2325:2328   */\n  dup3\n    /* \"#utility.yul\":2318:2322   */\n  0x1f\n    /* \"#utility.yul\":2310:2316   */\n  dup4\n    /* \"#utility.yul\":2306:2323   */\n  add\n    /* \"#utility.yul\":2302:2329   */\n  slt\n    /* \"#utility.yul\":2292:2414   */\n  tag_68\n  jumpi\n    /* \"#utility.yul\":2333:2412   */\n  tag_69\n  tag_12\n  jump\t// in\ntag_69:\n    /* \"#utility.yul\":2292:2414   */\ntag_68:\n    /* \"#utility.yul\":2443:2449   */\n  dup2\n    /* \"#utility.yul\":2437:2450   */\n  mload\n    /* \"#utility.yul\":2468:2558   */\n  tag_70\n    /* \"#utility.yul\":2554:2557   */\n  dup5\n    /* \"#utility.yul\":2546:2552   */\n  dup3\n    /* \"#utility.yul\":2539:2543   */\n  0x20\n    /* \"#utility.yul\":2531:2537   */\n  dup7\n    /* \"#utility.yul\":2527:2544   */\n  add\n    /* \"#utility.yul\":2468:2558   */\n  tag_20\n  jump\t// in\ntag_70:\n    /* \"#utility.yul\":2459:2558   */\n  swap2\n  pop\n    /* \"#utility.yul\":2282:2564   */\n  pop\n    /* \"#utility.yul\":2209:2564   */\n  swap3\n  swap2\n  pop\n  pop\n  jump\t// out\n    /* \"#utility.yul\":2570:3094   */\ntag_3:\n    /* \"#utility.yul\":2650:2656   */\n  0x00\n    /* \"#utility.yul\":2699:2701   */\n  0x20\n    /* \"#utility.yul\":2687:2696   */\n  dup3\n    /* \"#utility.yul\":2678:2685   */\n  dup5\n    /* \"#utility.yul\":2674:2697   */\n  sub\n    /* \"#utility.yul\":2670:2702   */\n  slt\n    /* \"#utility.yul\":2667:2786   */\n  iszero\n  tag_72\n  jumpi\n    /* \"#utility.yul\":2705:2784   */\n  tag_73\n  tag_10\n  jump\t// in\ntag_73:\n    /* \"#utility.yul\":2667:2786   */\ntag_72:\n    /* \"#utility.yul\":2846:2847   */\n  0x00\n    /* \"#utility.yul\":2835:2844   */\n  dup3\n    /* \"#utility.yul\":2831:2848   */\n  add\n    /* \"#utility.yul\":2825:2849   */\n  mload\n    /* \"#utility.yul\":2876:2894   */\n  0xffffffffffffffff\n    /* \"#utility.yul\":2868:2874   */\n  dup2\n    /* \"#utility.yul\":2865:2895   */\n  gt\n    /* \"#utility.yul\":2862:2979   */\n  iszero\n  tag_74\n  jumpi\n    /* \"#utility.yul\":2898:2977   */\n  tag_75\n  tag_11\n  jump\t// in\ntag_75:\n    /* \"#utility.yul\":2862:2979   */\ntag_74:\n    /* \"#utility.yul\":3003:3077   */\n  tag_76\n    /* \"#utility.yul\":3069:3076   */\n  dup5\n    /* \"#utility.yul\":3060:3066   */\n  dup3\n    /* \"#utility.yul\":3049:3058   */\n  dup6\n    /* \"#utility.yul\":3045:3067   */\n  add\n    /* \"#utility.yul\":3003:3077   */\n  tag_21\n  jump\t// in\ntag_76:\n    /* \"#utility.yul\":2993:3077   */\n  swap2\n  pop\n    /* \"#utility.yul\":2796:3087   */\n  pop\n    /* \"#utility.yul\":2570:3094   */\n  swap3\n  swap2\n  pop\n  pop\n  jump\t// out\n    /* \"#utility.yul\":3100:3199   */\ntag_22:\n    /* \"#utility.yul\":3152:3158   */\n  0x00\n    /* \"#utility.yul\":3186:3191   */\n  dup2\n    /* \"#utility.yul\":3180:3192   */\n  mload\n    /* \"#utility.yul\":3170:3192   */\n  swap1\n  pop\n    /* \"#utility.yul\":3100:3199   */\n  swap2\n  swap1\n  pop\n  jump\t// out\n    /* \"#utility.yul\":3205:3385   */\ntag_23:\n    /* \"#utility.yul\":3253:3330   */\n  0x4e487b7100000000000000000000000000000000000000000000000000000000\n    /* \"#utility.yul\":3250:3251   */\n  0x00\n    /* \"#utility.yul\":3243:3331   */\n  mstore\n    /* \"#utility.yul\":3350:3354   */\n  0x22\n    /* \"#utility.yul\":3347:3348   */\n  0x04\n    /* \"#utility.yul\":3340:3355   */\n  mstore\n    /* \"#utility.yul\":3374:3378   */\n  0x24\n    /* \"#utility.yul\":3371:3372   */\n  0x00\n    /* \"#utility.yul\":3364:3379   */\n  revert\n    /* \"#utility.yul\":3391:3711   */\ntag_24:\n    /* \"#utility.yul\":3435:3441   */\n  0x00\n    /* \"#utility.yul\":3472:3473   */\n  0x02\n    /* \"#utility.yul\":3466:3470   */\n  dup3\n    /* \"#utility.yul\":3462:3474   */\n  div\n    /* \"#utility.yul\":3452:3474   */\n  swap1\n  pop\n    /* \"#utility.yul\":3519:3520   */\n  0x01\n    /* \"#utility.yul\":3513:3517   */\n  dup3\n    /* \"#utility.yul\":3509:3521   */\n  and\n    /* \"#utility.yul\":3540:3558   */\n  dup1\n    /* \"#utility.yul\":3530:3611   */\n  tag_80\n  jumpi\n    /* \"#utility.yul\":3596:3600   */\n  0x7f\n    /* \"#utility.yul\":3588:3594   */\n  dup3\n    /* \"#utility.yul\":3584:3601   */\n  and\n    /* \"#utility.yul\":3574:3601   */\n  swap2\n  pop\n    /* \"#utility.yul\":3530:3611   */\ntag_80:\n    /* \"#utility.yul\":3658:3660   */\n  0x20\n    /* \"#utility.yul\":3650:3656   */\n  dup3\n    /* \"#utility.yul\":3647:3661   */\n  lt\n    /* \"#utility.yul\":3627:3645   */\n  dup2\n    /* \"#utility.yul\":3624:3662   */\n  sub\n    /* \"#utility.yul\":3621:3705   */\n  tag_81\n  jumpi\n    /* \"#utility.yul\":3677:3695   */\n  tag_82\n  tag_23\n  jump\t// in\ntag_82:\n    /* \"#utility.yul\":3621:3705   */\ntag_81:\n    /* \"#utility.yul\":3442:3711   */\n  pop\n    /* \"#utility.yul\":3391:3711   */\n  swap2\n  swap1\n  pop\n  jump\t// out\n    /* \"#utility.yul\":3717:3858   */\ntag_25:\n    /* \"#utility.yul\":3766:3770   */\n  0x00\n    /* \"#utility.yul\":3789:3792   */\n  dup2\n    /* \"#utility.yul\":3781:3792   */\n  swap1\n  pop\n    /* \"#utility.yul\":3812:3815   */\n  dup2\n    /* \"#utility.yul\":3809:3810   */\n  0x00\n    /* \"#utility.yul\":3802:3816   */\n  mstore\n    /* \"#utility.yul\":3846:3850   */\n  0x20\n    /* \"#utility.yul\":3843:3844   */\n  0x00\n    /* \"#utility.yul\":3833:3851   */\n  keccak256\n    /* \"#utility.yul\":3825:3851   */\n  swap1\n  pop\n    /* \"#utility.yul\":3717:3858   */\n  swap2\n  swap1\n  pop\n  jump\t// out\n    /* \"#utility.yul\":3864:3957   */\ntag_26:\n    /* \"#utility.yul\":3901:3907   */\n  0x00\n    /* \"#utility.yul\":3948:3950   */\n  0x20\n    /* \"#utility.yul\":3943:3945   */\n  0x1f\n    /* \"#utility.yul\":3936:3941   */\n  dup4\n    /* \"#utility.yul\":3932:3946   */\n  add\n    /* \"#utility.yul\":3928:3951   */\n  div\n    /* \"#utility.yul\":3918:3951   */\n  swap1\n  pop\n    /* \"#utility.yul\":3864:3957   */\n  swap2\n  swap1\n  pop\n  jump\t// out\n    /* \"#utility.yul\":3963:4070   */\ntag_27:\n    /* \"#utility.yul\":4007:4015   */\n  0x00\n    /* \"#utility.yul\":4057:4062   */\n  dup3\n    /* \"#utility.yul\":4051:4055   */\n  dup3\n    /* \"#utility.yul\":4047:4063   */\n  shl\n    /* \"#utility.yul\":4026:4063   */\n  swap1\n  pop\n    /* \"#utility.yul\":3963:4070   */\n  swap3\n  swap2\n  pop\n  pop\n  jump\t// out\n    /* \"#utility.yul\":4076:4469   */\ntag_28:\n    /* \"#utility.yul\":4145:4151   */\n  0x00\n    /* \"#utility.yul\":4195:4196   */\n  0x08\n    /* \"#utility.yul\":4183:4193   */\n  dup4\n    /* \"#utility.yul\":4179:4197   */\n  mul\n    /* \"#utility.yul\":4218:4315   */\n  tag_87\n    /* \"#utility.yul\":4248:4314   */\n  0xffffffffffffffffffffffffffffffffffffffffffffffffffffffffffffffff\n    /* \"#utility.yul\":4237:4246   */\n  dup3\n    /* \"#utility.yul\":4218:4315   */\n  tag_27\n  jump\t// in\ntag_87:\n    /* \"#utility.yul\":4336:4375   */\n  tag_88\n    /* \"#utility.yul\":4366:4374   */\n  dup7\n    /* \"#utility.yul\":4355:4364   */\n  dup4\n    /* \"#utility.yul\":4336:4375   */\n  tag_27\n  jump\t// in\ntag_88:\n    /* \"#utility.yul\":4324:4375   */\n  swap6\n  pop\n    /* \"#utility.yul\":4408:4412   */\n  dup1\n    /* \"#utility.yul\":4404:4413   */\n  not\n    /* \"#utility.yul\":4397:4402   */\n  dup5\n    /* \"#utility.yul\":4393:4414   */\n  and\n    /* \"#utility.yul\":4384:4414   */\n  swap4\n  pop\n    /* \"#utility.yul\":4457:4461   */\n  dup1\n    /* \"#utility.yul\":4447:4455   */\n  dup7\n    /* \"#utility.yul\":4443:4462   */\n  and\n    /* \"#utility.yul\":4436:4441   */\n  dup5\n    /* \"#utility.yul\":4433:4463   */\n  or\n    /* \"#utility.yul\":4423:4463   */\n  swap3\n  pop\n    /* \"#utility.yul\":4152:4469   */\n  pop\n  pop\n    /* \"#utility.yul\":4076:4469   */\n  swap4\n  swap3\n  pop\n  pop\n  pop\n  jump\t// out\n    /* \"#utility.yul\":4475:4552   */\ntag_29:\n    /* \"#utility.yul\":4512:4519   */\n  0x00\n    /* \"#utility.yul\":4541:4546   */\n  dup2\n    /* \"#utility.yul\":4530:4546   */\n  swap1\n  pop\n    /* \"#utility.yul\":4475:4552   */\n  swap2\n  swap1\n  pop\n  jump\t// out\n    /* \"#utility.yul\":4558:4618   */\ntag_30:\n    /* \"#utility.yul\":4586:4589   */\n  0x00\n    /* \"#utility.yul\":4607:4612   */\n  dup2\n    /* \"#utility.yul\":4600:4612   */\n  swap1\n  pop\n    /* \"#utility.yul\":4558:4618   */\n  swap2\n  swap1\n  pop\n  jump\t// out\n    /* \"#utility.yul\":4624:4766   */\ntag_31:\n    /* \"#utility.yul\":4674:4683   */\n  0x00\n    /* \"#utility.yul\":4707:4760   */\n  tag_92\n    /* \"#utility.yul\":4725:4759   */\n  tag_93\n    /* \"#utility.yul\":4734:4758   */\n  tag_94\n    /* \"#utility.yul\":4752:4757   */\n  dup5\n    /* \"#utility.yul\":4734:4758   */\n  tag_29\n  jump\t// in\ntag_94:\n    /* \"#utility.yul\":4725:4759   */\n  tag_30\n  jump\t// in\ntag_93:\n    /* \"#utility.yul\":4707:4760   */\n  tag_29\n  jump\t// in\ntag_92:\n    /* \"#utility.yul\":4694:4760   */\n  swap1\n  pop\n    /* \"#utility.yul\":4624:4766   */\n  swap2\n  swap1\n  pop\n  jump\t// out\n    /* \"#utility.yul\":4772:4847   */\ntag_32:\n    /* \"#utility.yul\":4815:4818   */\n  0x00\n    /* \"#utility.yul\":4836:4841   */\n  dup2\n    /* \"#utility.yul\":4829:4841   */\n  swap1\n  pop\n    /* \"#utility.yul\":4772:4847   */\n  swap2\n  swap1\n  pop\n  jump\t// out\n    /* \"#utility.yul\":4853:5122   */\ntag_33:\n    /* \"#utility.yul\":4963:5002   */\n  tag_97\n    /* \"#utility.yul\":4994:5001   */\n  dup4\n    /* \"#utility.yul\":4963:5002   */\n  tag_31\n  jump\t// in\ntag_97:\n    /* \"#utility.yul\":5024:5115   */\n  tag_98\n    /* \"#utility.yul\":5073:5114   */\n  tag_99\n    /* \"#utility.yul\":5097:5113   */\n  dup3\n    /* \"#utility.yul\":5073:5114   */\n  tag_32\n  jump\t// in\ntag_99:\n    /* \"#utility.yul\":5065:5071   */\n  dup5\n    /* \"#utility.yul\":5058:5062   */\n  dup5\n    /* \"#utility.yul\":5052:5063   */\n  sload\n    /* \"#utility.yul\":5024:5115   */\n  tag_28\n  jump\t// in\ntag_98:\n    /* \"#utility.yul\":5018:5022   */\n  dup3\n    /* \"#utility.yul\":5011:5116   */\n  sstore\n    /* \"#utility.yul\":4929:5122   */\n  pop\n    /* \"#utility.yul\":4853:5122   */\n  pop\n  pop\n  pop\n  jump\t// out\n    /* \"#utility.yul\":5128:5201   */\ntag_34:\n    /* \"#utility.yul\":5173:5176   */\n  0x00\n    /* \"#utility.yul\":5194:5195   */\n  0x00\n    /* \"#utility.yul\":5187:5195   */\n  swap1\n  pop\n    /* \"#utility.yul\":5128:5201   */\n  swap1\n  jump\t// out\n    /* \"#utility.yul\":5207:5396   */\ntag_35:\n    /* \"#utility.yul\":5284:5316   */\n  tag_102\n  tag_34\n  jump\t// in\ntag_102:\n    /* \"#utility.yul\":5325:5390   */\n  tag_103\n    /* \"#utility.yul\":5383:5389   */\n  dup2\n    /* \"#utility.yul\":5375:5381   */\n  dup5\n    /* \"#utility.yul\":5369:5373   */\n  dup5\n    /* \"#utility.yul\":5325:5390   */\n  tag_33\n  jump\t// in\ntag_103:\n    /* \"#utility.yul\":5260:5396   */\n  pop\n    /* \"#utility.yul\":5207:5396   */\n  pop\n  pop\n  jump\t// out\n    /* \"#utility.yul\":5402:5588   */\ntag_36:\n    /* \"#utility.yul\":5462:5582   */\ntag_105:\n    /* \"#utility.yul\":5479:5482   */\n  dup2\n    /* \"#utility.yul\":5472:5477   */\n  dup2\n    /* \"#utility.yul\":5469:5483   */\n  lt\n    /* \"#utility.yul\":5462:5582   */\n  iszero\n  tag_107\n  jumpi\n    /* \"#utility.yul\":5533:5572   */\n  tag_108\n    /* \"#utility.yul\":5570:5571   */\n  0x00\n    /* \"#utility.yul\":5563:5568   */\n  dup3\n    /* \"#utility.yul\":5533:5572   */\n  tag_35\n  jump\t// in\ntag_108:\n    /* \"#utility.yul\":5506:5507   */\n  0x01\n    /* \"#utility.yul\":5499:5504   */\n  dup2\n    /* \"#utility.yul\":5495:5508   */\n  add\n    /* \"#utility.yul\":5486:5508   */\n  swap1\n  pop\n    /* \"#utility.yul\":5462:5582   */\n  jump(tag_105)\ntag_107:\n    /* \"#utility.yul\":5402:5588   */\n  pop\n  pop\n  jump\t// out\n    /* \"#utility.yul\":5594:6137   */\ntag_37:\n    /* \"#utility.yul\":5695:5697   */\n  0x1f\n    /* \"#utility.yul\":5690:5693   */\n  dup3\n    /* \"#utility.yul\":5687:5698   */\n  gt\n    /* \"#utility.yul\":5684:6130   */\n  iszero\n  tag_110\n  jumpi\n    /* \"#utility.yul\":5729:5767   */\n  tag_111\n    /* \"#utility.yul\":5761:5766   */\n  dup2\n    /* \"#utility.yul\":5729:5767   */\n  tag_25\n  jump\t// in\ntag_111:\n    /* \"#utility.yul\":5813:5842   */\n  tag_112\n    /* \"#utility.yul\":5831:5841   */\n  dup5\n    /* \"#utility.yul\":5813:5842   */\n  tag_26\n  jump\t// in\ntag_112:\n    /* \"#utility.yul\":5803:5811   */\n  dup2\n    /* \"#utility.yul\":5799:5843   */\n  add\n    /* \"#utility.yul\":5996:5998   */\n  0x20\n    /* \"#utility.yul\":5984:5994   */\n  dup6\n    /* \"#utility.yul\":5981:5999   */\n  lt\n    /* \"#utility.yul\":5978:6027   */\n  iszero\n  tag_113\n  jumpi\n    /* \"#utility.yul\":6017:6025   */\n  dup2\n    /* \"#utility.yul\":6002:6025   */\n  swap1\n  pop\n    /* \"#utility.yul\":5978:6027   */\ntag_113:\n    /* \"#utility.yul\":6040:6120   */\n  tag_114\n    /* \"#utility.yul\":6096:6118   */\n  tag_115\n    /* \"#utility.yul\":6114:6117   */\n  dup6\n    /* \"#utility.yul\":6096:6118   */\n  tag_26\n  jump\t// in\ntag_115:\n    /* \"#utility.yul\":6086:6094   */\n  dup4\n    /* \"#utility.yul\":6082:6119   */\n  add\n    /* \"#utility.yul\":6069:6080   */\n  dup3\n    /* \"#utility.yul\":6040:6120   */\n  tag_36\n  jump\t// in\ntag_114:\n    /* \"#utility.yul\":5699:6130   */\n  pop\n  pop\n    /* \"#utility.yul\":5684:6130   */\ntag_110:\n    /* \"#utility.yul\":5594:6137   */\n  pop\n  pop\n  pop\n  jump\t// out\n    /* \"#utility.yul\":6143:6260   */\ntag_38:\n    /* \"#utility.yul\":6197:6205   */\n  0x00\n    /* \"#utility.yul\":6247:6252   */\n  dup3\n    /* \"#utility.yul\":6241:6245   */\n  dup3\n    /* \"#utility.yul\":6237:6253   */\n  shr\n    /* \"#utility.yul\":6216:6253   */\n  swap1\n  pop\n    /* \"#utility.yul\":6143:6260   */\n  swap3\n  swap2\n  pop\n  pop\n  jump\t// out\n    /* \"#utility.yul\":6266:6435   */\ntag_39:\n    /* \"#utility.yul\":6310:6316   */\n  0x00\n    /* \"#utility.yul\":6343:6394   */\n  tag_118\n    /* \"#utility.yul\":6391:6392   */\n  0x00\n    /* \"#utility.yul\":6387:6393   */\n  not\n    /* \"#utility.yul\":6379:6384   */\n  dup5\n    /* \"#utility.yul\":6376:6377   */\n  0x08\n    /* \"#utility.yul\":6372:6385   */\n  mul\n    /* \"#utility.yul\":6343:6394   */\n  tag_38\n  jump\t// in\ntag_118:\n    /* \"#utility.yul\":6339:6395   */\n  not\n    /* \"#utility.yul\":6424:6428   */\n  dup1\n    /* \"#utility.yul\":6418:6422   */\n  dup4\n    /* \"#utility.yul\":6414:6429   */\n  and\n    /* \"#utility.yul\":6404:6429   */\n  swap2\n  pop\n    /* \"#utility.yul\":6317:6435   */\n  pop\n    /* \"#utility.yul\":6266:6435   */\n  swap3\n  swap2\n  pop\n  pop\n  jump\t// out\n    /* \"#utility.yul\":6440:6735   */\ntag_40:\n    /* \"#utility.yul\":6516:6520   */\n  0x00\n    /* \"#utility.yul\":6662:6691   */\n  tag_120\n    /* \"#utility.yul\":6687:6690   */\n  dup4\n    /* \"#utility.yul\":6681:6685   */\n  dup4\n    /* \"#utility.yul\":6662:6691   */\n  tag_39\n  jump\t// in\ntag_120:\n    /* \"#utility.yul\":6654:6691   */\n  swap2\n  pop\n    /* \"#utility.yul\":6724:6727   */\n  dup3\n    /* \"#utility.yul\":6721:6722   */\n  0x02\n    /* \"#utility.yul\":6717:6728   */\n  mul\n    /* \"#utility.yul\":6711:6715   */\n  dup3\n    /* \"#utility.yul\":6708:6729   */\n  or\n    /* \"#utility.yul\":6700:6729   */\n  swap1\n  pop\n    /* \"#utility.yul\":6440:6735   */\n  swap3\n  swap2\n  pop\n  pop\n  jump\t// out\n    /* \"#utility.yul\":6740:8135   */\ntag_7:\n    /* \"#utility.yul\":6857:6894   */\n  tag_122\n    /* \"#utility.yul\":6890:6893   */\n  dup3\n    /* \"#utility.yul\":6857:6894   */\n  tag_22\n  jump\t// in\ntag_122:\n    /* \"#utility.yul\":6959:6977   */\n  0xffffffffffffffff\n    /* \"#utility.yul\":6951:6957   */\n  dup2\n    /* \"#utility.yul\":6948:6978   */\n  gt\n    /* \"#utility.yul\":6945:7001   */\n  iszero\n  tag_123\n  jumpi\n    /* \"#utility.yul\":6981:6999   */\n  tag_124\n  tag_15\n  jump\t// in\ntag_124:\n    /* \"#utility.yul\":6945:7001   */\ntag_123:\n    /* \"#utility.yul\":7025:7063   */\n  tag_125\n    /* \"#utility.yul\":7057:7061   */\n  dup3\n    /* \"#utility.yul\":7051:7062   */\n  sload\n    /* \"#utility.yul\":7025:7063   */\n  tag_24\n  jump\t// in\ntag_125:\n    /* \"#utility.yul\":7110:7177   */\n  tag_126\n    /* \"#utility.yul\":7170:7176   */\n  dup3\n    /* \"#utility.yul\":7162:7168   */\n  dup3\n    /* \"#utility.yul\":7156:7160   */\n  dup6\n    /* \"#utility.yul\":7110:7177   */\n  tag_37\n  jump\t// in\ntag_126:\n    /* \"#utility.yul\":7204:7205   */\n  0x00\n    /* \"#utility.yul\":7228:7232   */\n  0x20\n    /* \"#utility.yul\":7215:7232   */\n  swap1\n  pop\n    /* \"#utility.yul\":7260:7262   */\n  0x1f\n    /* \"#utility.yul\":7252:7258   */\n  dup4\n    /* \"#utility.yul\":7249:7263   */\n  gt\n    /* \"#utility.yul\":7277:7278   */\n  0x01\n    /* \"#utility.yul\":7272:7890   */\n  dup2\n  eq\n  tag_128\n  jumpi\n    /* \"#utility.yul\":7934:7935   */\n  0x00\n    /* \"#utility.yul\":7951:7957   */\n  dup5\n    /* \"#utility.yul\":7948:8025   */\n  iszero\n  tag_129\n  jumpi\n    /* \"#utility.yul\":8000:8009   */\n  dup3\n    /* \"#utility.yul\":7995:7998   */\n  dup8\n    /* \"#utility.yul\":7991:8010   */\n  add\n    /* \"#utility.yul\":7985:8011   */\n  mload\n    /* \"#utility.yul\":7976:8011   */\n  swap1\n  pop\n    /* \"#utility.yul\":7948:8025   */\ntag_129:\n    /* \"#utility.yul\":8051:8118   */\n  tag_130\n    /* \"#utility.yul\":8111:8117   */\n  dup6\n    /* \"#utility.yul\":8104:8109   */\n  dup3\n    /* \"#utility.yul\":8051:8118   */\n  tag_40\n  jump\t// in\ntag_130:\n    /* \"#utility.yul\":8045:8049   */\n  dup7\n    /* \"#utility.yul\":8038:8119   */\n  sstore\n    /* \"#utility.yul\":7907:8129   */\n  pop\n    /* \"#utility.yul\":7242:8129   */\n  jump(tag_127)\n    /* \"#utility.yul\":7272:7890   */\ntag_128:\n    /* \"#utility.yul\":7324:7328   */\n  0x1f\n    /* \"#utility.yul\":7320:7329   */\n  not\n    /* \"#utility.yul\":7312:7318   */\n  dup5\n    /* \"#utility.yul\":7308:7330   */\n  and\n    /* \"#utility.yul\":7358:7395   */\n  tag_131\n    /* \"#utility.yul\":7390:7394   */\n  dup7\n    /* \"#utility.yul\":7358:7395   */\n  tag_25\n  jump\t// in\ntag_131:\n    /* \"#utility.yul\":7417:7418   */\n  0x00\n    /* \"#utility.yul\":7431:7639   */\ntag_132:\n    /* \"#utility.yul\":7445:7452   */\n  dup3\n    /* \"#utility.yul\":7442:7443   */\n  dup2\n    /* \"#utility.yul\":7439:7453   */\n  lt\n    /* \"#utility.yul\":7431:7639   */\n  iszero\n  tag_134\n  jumpi\n    /* \"#utility.yul\":7524:7533   */\n  dup5\n    /* \"#utility.yul\":7519:7522   */\n  dup10\n    /* \"#utility.yul\":7515:7534   */\n  add\n    /* \"#utility.yul\":7509:7535   */\n  mload\n    /* \"#utility.yul\":7501:7507   */\n  dup3\n    /* \"#utility.yul\":7494:7536   */\n  sstore\n    /* \"#utility.yul\":7575:7576   */\n  0x01\n    /* \"#utility.yul\":7567:7573   */\n  dup3\n    /* \"#utility.yul\":7563:7577   */\n  add\n    /* \"#utility.yul\":7553:7577   */\n  swap2\n  pop\n    /* \"#utility.yul\":7622:7624   */\n  0x20\n    /* \"#utility.yul\":7611:7620   */\n  dup6\n    /* \"#utility.yul\":7607:7625   */\n  add\n    /* \"#utility.yul\":7594:7625   */\n  swap5\n  pop\n    /* \"#utility.yul\":7468:7472   */\n  0x20\n    /* \"#utility.yul\":7465:7466   */\n  dup2\n    /* \"#utility.yul\":7461:7473   */\n  add\n    /* \"#utility.yul\":7456:7473   */\n  swap1\n  pop\n    /* \"#utility.yul\":7431:7639   */\n  jump(tag_132)\ntag_134:\n    /* \"#utility.yul\":7667:7673   */\n  dup7\n    /* \"#utility.yul\":7658:7665   */\n  dup4\n    /* \"#utility.yul\":7655:7674   */\n  lt\n    /* \"#utility.yul\":7652:7831   */\n  iszero\n  tag_135\n  jumpi\n    /* \"#utility.yul\":7725:7734   */\n  dup5\n    /* \"#utility.yul\":7720:7723   */\n  dup10\n    /* \"#utility.yul\":7716:7735   */\n  add\n    /* \"#utility.yul\":7710:7736   */\n  mload\n    /* \"#utility.yul\":7768:7816   */\n  tag_136\n    /* \"#utility.yul\":7810:7814   */\n  0x1f\n    /* \"#utility.yul\":7802:7808   */\n  dup10\n    /* \"#utility.yul\":7798:7815   */\n  and\n    /* \"#utility.yul\":7787:7796   */\n  dup3\n    /* \"#utility.yul\":7768:7816   */\n  tag_39\n  jump\t// in\ntag_136:\n    /* \"#utility.yul\":7760:7766   */\n  dup4\n    /* \"#utility.yul\":7753:7817   */\n  sstore\n    /* \"#utility.yul\":7675:7831   */\n  pop\n    /* \"#utility.yul\":7652:7831   */\ntag_135:\n    /* \"#utility.yul\":7877:7878   */\n  0x01\n    /* \"#utility.yul\":7873:7874   */\n  0x02\n    /* \"#utility.yul\":7865:7871   */\n  dup9\n    /* \"#utility.yul\":7861:7875   */\n  mul\n    /* \"#utility.yul\":7857:7879   */\n  add\n    /* \"#utility.yul\":7851:7855   */\n  dup9\n    /* \"#utility.yul\":7844:7880   */\n  sstore\n    /* \"#utility.yul\":7279:7890   */\n  pop\n  pop\n  pop\n    /* \"#utility.yul\":7242:8129   */\ntag_127:\n  pop\n    /* \"#utility.yul\":6832:8135   */\n  pop\n  pop\n  pop\n    /* \"#utility.yul\":6740:8135   */\n  pop\n  pop\n  jump\t// out\n    /* \".deps/giorno0.sol\":247:2818  contract SimpleMessenger {... */\ntag_8:\n  dataSize(sub_0)\n  dup1\n  dataOffset(sub_0)\n  0x00\n  codecopy\n  0x00\n  return\nstop\n\nsub_0: assembly {\n        /* \".deps/giorno0.sol\":247:2818  contract SimpleMessenger {... */\n      mstore(0x40, 0x80)\n      callvalue\n      dup1\n      iszero\n      tag_1\n      jumpi\n      revert(0x00, 0x00)\n    tag_1:\n      pop\n      jumpi(tag_2, lt(calldatasize, 0x04))\n      shr(0xe0, calldataload(0x00))\n      dup1\n      0x1923be24\n      eq\n      tag_3\n      jumpi\n      dup1\n      0xd9203db6\n      eq\n      tag_4\n      jumpi\n      dup1\n      0xf3593d4f\n      eq\n      tag_5\n      jumpi\n    tag_2:\n      revert(0x00, 0x00)\n        /* \".deps/giorno0.sol\":2469:2815  function updateMessage(string calldata newMessage) external {... */\n    tag_3:\n      tag_6\n      0x04\n      dup1\n      calldatasize\n      sub\n      dup2\n      add\n      swap1\n      tag_7\n      swap2\n      swap1\n      tag_8\n      jump\t// in\n    tag_7:\n      tag_9\n      jump\t// in\n    tag_6:\n      stop\n        /* \".deps/giorno0.sol\":1831:1929  function currentMessage() external view returns (string memory) {... */\n    tag_4:\n      tag_10\n      tag_11\n      jump\t// in\n    tag_10:\n      mload(0x40)\n      tag_12\n      swap2\n      swap1\n      tag_13\n      jump\t// in\n    tag_12:\n      mload(0x40)\n      dup1\n      swap2\n      sub\n      swap1\n      return\n        /* \".deps/giorno0.sol\":2008:2111  function helloConstant() external pure returns (string memory) {... */\n    tag_5:\n      tag_14\n      tag_15\n      jump\t// in\n    tag_14:\n      mload(0x40)\n      tag_16\n      swap2\n      swap1\n      tag_13\n      jump\t// in\n    tag_16:\n      mload(0x40)\n      dup1\n      swap2\n      sub\n      swap1\n      return\n        /* \".deps/giorno0.sol\":2469:2815  function updateMessage(string calldata newMessage) external {... */\n    tag_9:\n        /* \".deps/giorno0.sol\":2589:2606  string memory old */\n      0x00\n        /* \".deps/giorno0.sol\":2609:2617  _message */\n      0x00\n        /* \".deps/giorno0.sol\":2589:2617  string memory old = _message */\n      dup1\n      sload\n      tag_18\n      swap1\n      tag_19\n      jump\t// in\n    tag_18:\n      dup1\n      0x1f\n      add\n      0x20\n      dup1\n      swap2\n      div\n      mul\n      0x20\n      add\n      mload(0x40)\n      swap1\n      dup2\n      add\n      0x40\n      mstore\n      dup1\n      swap3\n      swap2\n      swap1\n      dup2\n      dup2\n      mstore\n      0x20\n      add\n      dup3\n      dup1\n      sload\n      tag_20\n      swap1\n      tag_19\n      jump\t// in\n    tag_20:\n      dup1\n      iszero\n      tag_21\n      jumpi\n      dup1\n      0x1f\n      lt\n      tag_22\n      jumpi\n      0x0100\n      dup1\n      dup4\n      sload\n      div\n      mul\n      dup4\n      mstore\n      swap2\n      0x20\n      add\n      swap2\n      jump(tag_21)\n    tag_22:\n      dup3\n      add\n      swap2\n      swap1\n      0x00\n      mstore\n      keccak256(0x00, 0x20)\n      swap1\n    tag_23:\n      dup2\n      sload\n      dup2\n      mstore\n      swap1\n      0x01\n      add\n      swap1\n      0x20\n      add\n      dup1\n      dup4\n      gt\n      tag_23\n      jumpi\n      dup3\n      swap1\n      sub\n      0x1f\n      and\n      dup3\n      add\n      swap2\n    tag_21:\n      pop\n      pop\n      pop\n      pop\n      pop\n      swap1\n      pop\n        /* \".deps/giorno0.sol\":2701:2711  newMessage */\n      dup3\n      dup3\n        /* \".deps/giorno0.sol\":2690:2698  _message */\n      0x00\n        /* \".deps/giorno0.sol\":2690:2711  _message = newMessage */\n      swap2\n      dup3\n      tag_24\n      swap3\n      swap2\n      swap1\n      tag_25\n      jump\t// in\n    tag_24:\n      pop\n        /* \".deps/giorno0.sol\":2776:2807  MessageChanged(old, newMessage) */\n      0x5f39fb9255c1b6ac340f9d398daf534d7efd9290c2f50c92353a6c16ecae84ba\n        /* \".deps/giorno0.sol\":2791:2794  old */\n      dup2\n        /* \".deps/giorno0.sol\":2796:2806  newMessage */\n      dup5\n      dup5\n        /* \".deps/giorno0.sol\":2776:2807  MessageChanged(old, newMessage) */\n      mload(0x40)\n      tag_26\n      swap4\n      swap3\n      swap2\n      swap1\n      tag_27\n      jump\t// in\n    tag_26:\n      mload(0x40)\n      dup1\n      swap2\n      sub\n      swap1\n      log1\n        /* \".deps/giorno0.sol\":2529:2815  {... */\n      pop\n        /* \".deps/giorno0.sol\":2469:2815  function updateMessage(string calldata newMessage) external {... */\n      pop\n      pop\n      jump\t// out\n        /* \".deps/giorno0.sol\":1831:1929  function currentMessage() external view returns (string memory) {... */\n    tag_11:\n        /* \".deps/giorno0.sol\":1880:1893  string memory */\n      0x60\n        /* \".deps/giorno0.sol\":1913:1921  _message */\n      0x00\n        /* \".deps/giorno0.sol\":1906:1921  return _message */\n      dup1\n      sload\n      tag_29\n      swap1\n      tag_19\n      jump\t// in\n    tag_29:\n      dup1\n      0x1f\n      add\n      0x20\n      dup1\n      swap2\n      div\n      mul\n      0x20\n      add\n      mload(0x40)\n      swap1\n      dup2\n      add\n      0x40\n      mstore\n      dup1\n      swap3\n      swap2\n      swap1\n      dup2\n      dup2\n      mstore\n      0x20\n      add\n      dup3\n      dup1\n      sload\n      tag_30\n      swap1\n      tag_19\n      jump\t// in\n    tag_30:\n      dup1\n      iszero\n      tag_31\n      jumpi\n      dup1\n      0x1f\n      lt\n      tag_32\n      jumpi\n      0x0100\n      dup1\n      dup4\n      sload\n      div\n      mul\n      dup4\n      mstore\n      swap2\n      0x20\n      add\n      swap2\n      jump(tag_31)\n    tag_32:\n      dup3\n      add\n      swap2\n      swap1\n      0x00\n      mstore\n      keccak256(0x00, 0x20)\n      swap1\n    tag_33:\n      dup2\n      sload\n      dup2\n      mstore\n      swap1\n      0x01\n      add\n      swap1\n      0x20\n      add\n      dup1\n      dup4\n      gt\n      tag_33\n      jumpi\n      dup3\n      swap1\n      sub\n      0x1f\n      and\n      dup3\n      add\n      swap2\n    tag_31:\n      pop\n      pop\n      pop\n      pop\n      pop\n      swap1\n      pop\n        /* \".deps/giorno0.sol\":1831:1929  function currentMessage() external view returns (string memory) {... */\n      swap1\n      jump\t// out\n        /* \".deps/giorno0.sol\":2008:2111  function helloConstant() external pure returns (string memory) {... */\n    tag_15:\n        /* \".deps/giorno0.sol\":2056:2069  string memory */\n      0x60\n        /* \".deps/giorno0.sol\":2082:2103  return \"Hello World!\" */\n      mload(0x40)\n      dup1\n      0x40\n      add\n      0x40\n      mstore\n      dup1\n      0x0c\n      dup2\n      mstore\n      0x20\n      add\n      0x48656c6c6f20576f726c64210000000000000000000000000000000000000000\n      dup2\n      mstore\n      pop\n      swap1\n      pop\n        /* \".deps/giorno0.sol\":2008:2111  function helloConstant() external pure returns (string memory) {... */\n      swap1\n      jump\t// out\n        /* \"#utility.yul\":88:205   */\n    tag_36:\n        /* \"#utility.yul\":197:198   */\n      0x00\n        /* \"#utility.yul\":194:195   */\n      0x00\n        /* \"#utility.yul\":187:199   */\n      revert\n        /* \"#utility.yul\":211:328   */\n    tag_37:\n        /* \"#utility.yul\":320:321   */\n      0x00\n        /* \"#utility.yul\":317:318   */\n      0x00\n        /* \"#utility.yul\":310:322   */\n      revert\n        /* \"#utility.yul\":334:451   */\n    tag_38:\n        /* \"#utility.yul\":443:444   */\n      0x00\n        /* \"#utility.yul\":440:441   */\n      0x00\n        /* \"#utility.yul\":433:445   */\n      revert\n        /* \"#utility.yul\":457:574   */\n    tag_39:\n        /* \"#utility.yul\":566:567   */\n      0x00\n        /* \"#utility.yul\":563:564   */\n      0x00\n        /* \"#utility.yul\":556:568   */\n      revert\n        /* \"#utility.yul\":580:697   */\n    tag_40:\n        /* \"#utility.yul\":689:690   */\n      0x00\n        /* \"#utility.yul\":686:687   */\n      0x00\n        /* \"#utility.yul\":679:691   */\n      revert\n        /* \"#utility.yul\":717:1270   */\n    tag_41:\n        /* \"#utility.yul\":775:783   */\n      0x00\n        /* \"#utility.yul\":785:791   */\n      0x00\n        /* \"#utility.yul\":835:838   */\n      dup4\n        /* \"#utility.yul\":828:832   */\n      0x1f\n        /* \"#utility.yul\":820:826   */\n      dup5\n        /* \"#utility.yul\":816:833   */\n      add\n        /* \"#utility.yul\":812:839   */\n      slt\n        /* \"#utility.yul\":802:924   */\n      tag_76\n      jumpi\n        /* \"#utility.yul\":843:922   */\n      tag_77\n      tag_38\n      jump\t// in\n    tag_77:\n        /* \"#utility.yul\":802:924   */\n    tag_76:\n        /* \"#utility.yul\":956:962   */\n      dup3\n        /* \"#utility.yul\":943:963   */\n      calldataload\n        /* \"#utility.yul\":933:963   */\n      swap1\n      pop\n        /* \"#utility.yul\":986:1004   */\n      0xffffffffffffffff\n        /* \"#utility.yul\":978:984   */\n      dup2\n        /* \"#utility.yul\":975:1005   */\n      gt\n        /* \"#utility.yul\":972:1089   */\n      iszero\n      tag_78\n      jumpi\n        /* \"#utility.yul\":1008:1087   */\n      tag_79\n      tag_39\n      jump\t// in\n    tag_79:\n        /* \"#utility.yul\":972:1089   */\n    tag_78:\n        /* \"#utility.yul\":1122:1126   */\n      0x20\n        /* \"#utility.yul\":1114:1120   */\n      dup4\n        /* \"#utility.yul\":1110:1127   */\n      add\n        /* \"#utility.yul\":1098:1127   */\n      swap2\n      pop\n        /* \"#utility.yul\":1176:1179   */\n      dup4\n        /* \"#utility.yul\":1168:1172   */\n      0x01\n        /* \"#utility.yul\":1160:1166   */\n      dup3\n        /* \"#utility.yul\":1156:1173   */\n      mul\n        /* \"#utility.yul\":1146:1154   */\n      dup4\n        /* \"#utility.yul\":1142:1174   */\n      add\n        /* \"#utility.yul\":1139:1180   */\n      gt\n        /* \"#utility.yul\":1136:1264   */\n      iszero\n      tag_80\n      jumpi\n        /* \"#utility.yul\":1183:1262   */\n      tag_81\n      tag_40\n      jump\t// in\n    tag_81:\n        /* \"#utility.yul\":1136:1264   */\n    tag_80:\n        /* \"#utility.yul\":717:1270   */\n      swap3\n      pop\n      swap3\n      swap1\n      pop\n      jump\t// out\n        /* \"#utility.yul\":1276:1805   */\n    tag_8:\n        /* \"#utility.yul\":1347:1353   */\n      0x00\n        /* \"#utility.yul\":1355:1361   */\n      0x00\n        /* \"#utility.yul\":1404:1406   */\n      0x20\n        /* \"#utility.yul\":1392:1401   */\n      dup4\n        /* \"#utility.yul\":1383:1390   */\n      dup6\n        /* \"#utility.yul\":1379:1402   */\n      sub\n        /* \"#utility.yul\":1375:1407   */\n      slt\n        /* \"#utility.yul\":1372:1491   */\n      iszero\n      tag_83\n      jumpi\n        /* \"#utility.yul\":1410:1489   */\n      tag_84\n      tag_36\n      jump\t// in\n    tag_84:\n        /* \"#utility.yul\":1372:1491   */\n    tag_83:\n        /* \"#utility.yul\":1558:1559   */\n      0x00\n        /* \"#utility.yul\":1547:1556   */\n      dup4\n        /* \"#utility.yul\":1543:1560   */\n      add\n        /* \"#utility.yul\":1530:1561   */\n      calldataload\n        /* \"#utility.yul\":1588:1606   */\n      0xffffffffffffffff\n        /* \"#utility.yul\":1580:1586   */\n      dup2\n        /* \"#utility.yul\":1577:1607   */\n      gt\n        /* \"#utility.yul\":1574:1691   */\n      iszero\n      tag_85\n      jumpi\n        /* \"#utility.yul\":1610:1689   */\n      tag_86\n      tag_37\n      jump\t// in\n    tag_86:\n        /* \"#utility.yul\":1574:1691   */\n    tag_85:\n        /* \"#utility.yul\":1723:1788   */\n      tag_87\n        /* \"#utility.yul\":1780:1787   */\n      dup6\n        /* \"#utility.yul\":1771:1777   */\n      dup3\n        /* \"#utility.yul\":1760:1769   */\n      dup7\n        /* \"#utility.yul\":1756:1778   */\n      add\n        /* \"#utility.yul\":1723:1788   */\n      tag_41\n      jump\t// in\n    tag_87:\n        /* \"#utility.yul\":1705:1788   */\n      swap3\n      pop\n      swap3\n      pop\n        /* \"#utility.yul\":1501:1798   */\n      pop\n        /* \"#utility.yul\":1276:1805   */\n      swap3\n      pop\n      swap3\n      swap1\n      pop\n      jump\t// out\n        /* \"#utility.yul\":1811:1910   */\n    tag_42:\n        /* \"#utility.yul\":1863:1869   */\n      0x00\n        /* \"#utility.yul\":1897:1902   */\n      dup2\n        /* \"#utility.yul\":1891:1903   */\n      mload\n        /* \"#utility.yul\":1881:1903   */\n      swap1\n      pop\n        /* \"#utility.yul\":1811:1910   */\n      swap2\n      swap1\n      pop\n      jump\t// out\n        /* \"#utility.yul\":1916:2085   */\n    tag_43:\n        /* \"#utility.yul\":2000:2011   */\n      0x00\n        /* \"#utility.yul\":2034:2040   */\n      dup3\n        /* \"#utility.yul\":2029:2032   */\n      dup3\n        /* \"#utility.yul\":2022:2041   */\n      mstore\n        /* \"#utility.yul\":2074:2078   */\n      0x20\n        /* \"#utility.yul\":2069:2072   */\n      dup3\n        /* \"#utility.yul\":2065:2079   */\n      add\n        /* \"#utility.yul\":2050:2079   */\n      swap1\n      pop\n        /* \"#utility.yul\":1916:2085   */\n      swap3\n      swap2\n      pop\n      pop\n      jump\t// out\n        /* \"#utility.yul\":2091:2230   */\n    tag_44:\n        /* \"#utility.yul\":2180:2186   */\n      dup3\n        /* \"#utility.yul\":2175:2178   */\n      dup2\n        /* \"#utility.yul\":2170:2173   */\n      dup4\n        /* \"#utility.yul\":2164:2187   */\n      mcopy\n        /* \"#utility.yul\":2221:2222   */\n      0x00\n        /* \"#utility.yul\":2212:2218   */\n      dup4\n        /* \"#utility.yul\":2207:2210   */\n      dup4\n        /* \"#utility.yul\":2203:2219   */\n      add\n        /* \"#utility.yul\":2196:2223   */\n      mstore\n        /* \"#utility.yul\":2091:2230   */\n      pop\n      pop\n      pop\n      jump\t// out\n        /* \"#utility.yul\":2236:2338   */\n    tag_45:\n        /* \"#utility.yul\":2277:2283   */\n      0x00\n        /* \"#utility.yul\":2328:2330   */\n      0x1f\n        /* \"#utility.yul\":2324:2331   */\n      not\n        /* \"#utility.yul\":2319:2321   */\n      0x1f\n        /* \"#utility.yul\":2312:2317   */\n      dup4\n        /* \"#utility.yul\":2308:2322   */\n      add\n        /* \"#utility.yul\":2304:2332   */\n      and\n        /* \"#utility.yul\":2294:2332   */\n      swap1\n      pop\n        /* \"#utility.yul\":2236:2338   */\n      swap2\n      swap1\n      pop\n      jump\t// out\n        /* \"#utility.yul\":2344:2721   */\n    tag_46:\n        /* \"#utility.yul\":2432:2435   */\n      0x00\n        /* \"#utility.yul\":2460:2499   */\n      tag_93\n        /* \"#utility.yul\":2493:2498   */\n      dup3\n        /* \"#utility.yul\":2460:2499   */\n      tag_42\n      jump\t// in\n    tag_93:\n        /* \"#utility.yul\":2515:2586   */\n      tag_94\n        /* \"#utility.yul\":2579:2585   */\n      dup2\n        /* \"#utility.yul\":2574:2577   */\n      dup6\n        /* \"#utility.yul\":2515:2586   */\n      tag_43\n      jump\t// in\n    tag_94:\n        /* \"#utility.yul\":2508:2586   */\n      swap4\n      pop\n        /* \"#utility.yul\":2595:2660   */\n      tag_95\n        /* \"#utility.yul\":2653:2659   */\n      dup2\n        /* \"#utility.yul\":2648:2651   */\n      dup6\n        /* \"#utility.yul\":2641:2645   */\n      0x20\n        /* \"#utility.yul\":2634:2639   */\n      dup7\n        /* \"#utility.yul\":2630:2646   */\n      add\n        /* \"#utility.yul\":2595:2660   */\n      tag_44\n      jump\t// in\n    tag_95:\n        /* \"#utility.yul\":2685:2714   */\n      tag_96\n        /* \"#utility.yul\":2707:2713   */\n      dup2\n        /* \"#utility.yul\":2685:2714   */\n      tag_45\n      jump\t// in\n    tag_96:\n        /* \"#utility.yul\":2680:2683   */\n      dup5\n        /* \"#utility.yul\":2676:2715   */\n      add\n        /* \"#utility.yul\":2669:2715   */\n      swap2\n      pop\n        /* \"#utility.yul\":2436:2721   */\n      pop\n        /* \"#utility.yul\":2344:2721   */\n      swap3\n      swap2\n      pop\n      pop\n      jump\t// out\n        /* \"#utility.yul\":2727:3040   */\n    tag_13:\n        /* \"#utility.yul\":2840:2844   */\n      0x00\n        /* \"#utility.yul\":2878:2880   */\n      0x20\n        /* \"#utility.yul\":2867:2876   */\n      dup3\n        /* \"#utility.yul\":2863:2881   */\n      add\n        /* \"#utility.yul\":2855:2881   */\n      swap1\n      pop\n        /* \"#utility.yul\":2927:2936   */\n      dup2\n        /* \"#utility.yul\":2921:2925   */\n      dup2\n        /* \"#utility.yul\":2917:2937   */\n      sub\n        /* \"#utility.yul\":2913:2914   */\n      0x00\n        /* \"#utility.yul\":2902:2911   */\n      dup4\n        /* \"#utility.yul\":2898:2915   */\n      add\n        /* \"#utility.yul\":2891:2938   */\n      mstore\n        /* \"#utility.yul\":2955:3033   */\n      tag_98\n        /* \"#utility.yul\":3028:3032   */\n      dup2\n        /* \"#utility.yul\":3019:3025   */\n      dup5\n        /* \"#utility.yul\":2955:3033   */\n      tag_46\n      jump\t// in\n    tag_98:\n        /* \"#utility.yul\":2947:3033   */\n      swap1\n      pop\n        /* \"#utility.yul\":2727:3040   */\n      swap3\n      swap2\n      pop\n      pop\n      jump\t// out\n        /* \"#utility.yul\":3046:3226   */\n    tag_47:\n        /* \"#utility.yul\":3094:3171   */\n      0x4e487b7100000000000000000000000000000000000000000000000000000000\n        /* \"#utility.yul\":3091:3092   */\n      0x00\n        /* \"#utility.yul\":3084:3172   */\n      mstore\n        /* \"#utility.yul\":3191:3195   */\n      0x22\n        /* \"#utility.yul\":3188:3189   */\n      0x04\n        /* \"#utility.yul\":3181:3196   */\n      mstore\n        /* \"#utility.yul\":3215:3219   */\n      0x24\n        /* \"#utility.yul\":3212:3213   */\n      0x00\n        /* \"#utility.yul\":3205:3220   */\n      revert\n        /* \"#utility.yul\":3232:3552   */\n    tag_19:\n        /* \"#utility.yul\":3276:3282   */\n      0x00\n        /* \"#utility.yul\":3313:3314   */\n      0x02\n        /* \"#utility.yul\":3307:3311   */\n      dup3\n        /* \"#utility.yul\":3303:3315   */\n      div\n        /* \"#utility.yul\":3293:3315   */\n      swap1\n      pop\n        /* \"#utility.yul\":3360:3361   */\n      0x01\n        /* \"#utility.yul\":3354:3358   */\n      dup3\n        /* \"#utility.yul\":3350:3362   */\n      and\n        /* \"#utility.yul\":3381:3399   */\n      dup1\n        /* \"#utility.yul\":3371:3452   */\n      tag_101\n      jumpi\n        /* \"#utility.yul\":3437:3441   */\n      0x7f\n        /* \"#utility.yul\":3429:3435   */\n      dup3\n        /* \"#utility.yul\":3425:3442   */\n      and\n        /* \"#utility.yul\":3415:3442   */\n      swap2\n      pop\n        /* \"#utility.yul\":3371:3452   */\n    tag_101:\n        /* \"#utility.yul\":3499:3501   */\n      0x20\n        /* \"#utility.yul\":3491:3497   */\n      dup3\n        /* \"#utility.yul\":3488:3502   */\n      lt\n        /* \"#utility.yul\":3468:3486   */\n      dup2\n        /* \"#utility.yul\":3465:3503   */\n      sub\n        /* \"#utility.yul\":3462:3546   */\n      tag_102\n      jumpi\n        /* \"#utility.yul\":3518:3536   */\n      tag_103\n      tag_47\n      jump\t// in\n    tag_103:\n        /* \"#utility.yul\":3462:3546   */\n    tag_102:\n        /* \"#utility.yul\":3283:3552   */\n      pop\n        /* \"#utility.yul\":3232:3552   */\n      swap2\n      swap1\n      pop\n      jump\t// out\n        /* \"#utility.yul\":3558:3655   */\n    tag_48:\n        /* \"#utility.yul\":3617:3623   */\n      0x00\n        /* \"#utility.yul\":3645:3648   */\n      dup3\n        /* \"#utility.yul\":3635:3648   */\n      swap1\n      pop\n        /* \"#utility.yul\":3558:3655   */\n      swap3\n      swap2\n      pop\n      pop\n      jump\t// out\n        /* \"#utility.yul\":3661:3841   */\n    tag_49:\n        /* \"#utility.yul\":3709:3786   */\n      0x4e487b7100000000000000000000000000000000000000000000000000000000\n        /* \"#utility.yul\":3706:3707   */\n      0x00\n        /* \"#utility.yul\":3699:3787   */\n      mstore\n        /* \"#utility.yul\":3806:3810   */\n      0x41\n        /* \"#utility.yul\":3803:3804   */\n      0x04\n        /* \"#utility.yul\":3796:3811   */\n      mstore\n        /* \"#utility.yul\":3830:3834   */\n      0x24\n        /* \"#utility.yul\":3827:3828   */\n      0x00\n        /* \"#utility.yul\":3820:3835   */\n      revert\n        /* \"#utility.yul\":3847:3988   */\n    tag_50:\n        /* \"#utility.yul\":3896:3900   */\n      0x00\n        /* \"#utility.yul\":3919:3922   */\n      dup2\n        /* \"#utility.yul\":3911:3922   */\n      swap1\n      pop\n        /* \"#utility.yul\":3942:3945   */\n      dup2\n        /* \"#utility.yul\":3939:3940   */\n      0x00\n        /* \"#utility.yul\":3932:3946   */\n      mstore\n        /* \"#utility.yul\":3976:3980   */\n      0x20\n        /* \"#utility.yul\":3973:3974   */\n      0x00\n        /* \"#utility.yul\":3963:3981   */\n      keccak256\n        /* \"#utility.yul\":3955:3981   */\n      swap1\n      pop\n        /* \"#utility.yul\":3847:3988   */\n      swap2\n      swap1\n      pop\n      jump\t// out\n        /* \"#utility.yul\":3994:4087   */\n    tag_51:\n        /* \"#utility.yul\":4031:4037   */\n      0x00\n        /* \"#utility.yul\":4078:4080   */\n      0x20\n        /* \"#utility.yul\":4073:4075   */\n      0x1f\n        /* \"#utility.yul\":4066:4071   */\n      dup4\n        /* \"#utility.yul\":4062:4076   */\n      add\n        /* \"#utility.yul\":4058:4081   */\n      div\n        /* \"#utility.yul\":4048:4081   */\n      swap1\n      pop\n        /* \"#utility.yul\":3994:4087   */\n      swap2\n      swap1\n      pop\n      jump\t// out\n        /* \"#utility.yul\":4093:4200   */\n    tag_52:\n        /* \"#utility.yul\":4137:4145   */\n      0x00\n        /* \"#utility.yul\":4187:4192   */\n      dup3\n        /* \"#utility.yul\":4181:4185   */\n      dup3\n        /* \"#utility.yul\":4177:4193   */\n      shl\n        /* \"#utility.yul\":4156:4193   */\n      swap1\n      pop\n        /* \"#utility.yul\":4093:4200   */\n      swap3\n      swap2\n      pop\n      pop\n      jump\t// out\n        /* \"#utility.yul\":4206:4599   */\n    tag_53:\n        /* \"#utility.yul\":4275:4281   */\n      0x00\n        /* \"#utility.yul\":4325:4326   */\n      0x08\n        /* \"#utility.yul\":4313:4323   */\n      dup4\n        /* \"#utility.yul\":4309:4327   */\n      mul\n        /* \"#utility.yul\":4348:4445   */\n      tag_110\n        /* \"#utility.yul\":4378:4444   */\n      0xffffffffffffffffffffffffffffffffffffffffffffffffffffffffffffffff\n        /* \"#utility.yul\":4367:4376   */\n      dup3\n        /* \"#utility.yul\":4348:4445   */\n      tag_52\n      jump\t// in\n    tag_110:\n        /* \"#utility.yul\":4466:4505   */\n      tag_111\n        /* \"#utility.yul\":4496:4504   */\n      dup7\n        /* \"#utility.yul\":4485:4494   */\n      dup4\n        /* \"#utility.yul\":4466:4505   */\n      tag_52\n      jump\t// in\n    tag_111:\n        /* \"#utility.yul\":4454:4505   */\n      swap6\n      pop\n        /* \"#utility.yul\":4538:4542   */\n      dup1\n        /* \"#utility.yul\":4534:4543   */\n      not\n        /* \"#utility.yul\":4527:4532   */\n      dup5\n        /* \"#utility.yul\":4523:4544   */\n      and\n        /* \"#utility.yul\":4514:4544   */\n      swap4\n      pop\n        /* \"#utility.yul\":4587:4591   */\n      dup1\n        /* \"#utility.yul\":4577:4585   */\n      dup7\n        /* \"#utility.yul\":4573:4592   */\n      and\n        /* \"#utility.yul\":4566:4571   */\n      dup5\n        /* \"#utility.yul\":4563:4593   */\n      or\n        /* \"#utility.yul\":4553:4593   */\n      swap3\n      pop\n        /* \"#utility.yul\":4282:4599   */\n      pop\n      pop\n        /* \"#utility.yul\":4206:4599   */\n      swap4\n      swap3\n      pop\n      pop\n      pop\n      jump\t// out\n        /* \"#utility.yul\":4605:4682   */\n    tag_54:\n        /* \"#utility.yul\":4642:4649   */\n      0x00\n        /* \"#utility.yul\":4671:4676   */\n      dup2\n        /* \"#utility.yul\":4660:4676   */\n      swap1\n      pop\n        /* \"#utility.yul\":4605:4682   */\n      swap2\n      swap1\n      pop\n      jump\t// out\n        /* \"#utility.yul\":4688:4748   */\n    tag_55:\n        /* \"#utility.yul\":4716:4719   */\n      0x00\n        /* \"#utility.yul\":4737:4742   */\n      dup2\n        /* \"#utility.yul\":4730:4742   */\n      swap1\n      pop\n        /* \"#utility.yul\":4688:4748   */\n      swap2\n      swap1\n      pop\n      jump\t// out\n        /* \"#utility.yul\":4754:4896   */\n    tag_56:\n        /* \"#utility.yul\":4804:4813   */\n      0x00\n        /* \"#utility.yul\":4837:4890   */\n      tag_115\n        /* \"#utility.yul\":4855:4889   */\n      tag_116\n        /* \"#utility.yul\":4864:4888   */\n      tag_117\n        /* \"#utility.yul\":4882:4887   */\n      dup5\n        /* \"#utility.yul\":4864:4888   */\n      tag_54\n      jump\t// in\n    tag_117:\n        /* \"#utility.yul\":4855:4889   */\n      tag_55\n      jump\t// in\n    tag_116:\n        /* \"#utility.yul\":4837:4890   */\n      tag_54\n      jump\t// in\n    tag_115:\n        /* \"#utility.yul\":4824:4890   */\n      swap1\n      pop\n        /* \"#utility.yul\":4754:4896   */\n      swap2\n      swap1\n      pop\n      jump\t// out\n        /* \"#utility.yul\":4902:4977   */\n    tag_57:\n        /* \"#utility.yul\":4945:4948   */\n      0x00\n        /* \"#utility.yul\":4966:4971   */\n      dup2\n        /* \"#utility.yul\":4959:4971   */\n      swap1\n      pop\n        /* \"#utility.yul\":4902:4977   */\n      swap2\n      swap1\n      pop\n      jump\t// out\n        /* \"#utility.yul\":4983:5252   */\n    tag_58:\n        /* \"#utility.yul\":5093:5132   */\n      tag_120\n        /* \"#utility.yul\":5124:5131   */\n      dup4\n        /* \"#utility.yul\":5093:5132   */\n      tag_56\n      jump\t// in\n    tag_120:\n        /* \"#utility.yul\":5154:5245   */\n      tag_121\n        /* \"#utility.yul\":5203:5244   */\n      tag_122\n        /* \"#utility.yul\":5227:5243   */\n      dup3\n        /* \"#utility.yul\":5203:5244   */\n      tag_57\n      jump\t// in\n    tag_122:\n        /* \"#utility.yul\":5195:5201   */\n      dup5\n        /* \"#utility.yul\":5188:5192   */\n      dup5\n        /* \"#utility.yul\":5182:5193   */\n      sload\n        /* \"#utility.yul\":5154:5245   */\n      tag_53\n      jump\t// in\n    tag_121:\n        /* \"#utility.yul\":5148:5152   */\n      dup3\n        /* \"#utility.yul\":5141:5246   */\n      sstore\n        /* \"#utility.yul\":5059:5252   */\n      pop\n        /* \"#utility.yul\":4983:5252   */\n      pop\n      pop\n      pop\n      jump\t// out\n        /* \"#utility.yul\":5258:5331   */\n    tag_59:\n        /* \"#utility.yul\":5303:5306   */\n      0x00\n        /* \"#utility.yul\":5324:5325   */\n      0x00\n        /* \"#utility.yul\":5317:5325   */\n      swap1\n      pop\n        /* \"#utility.yul\":5258:5331   */\n      swap1\n      jump\t// out\n        /* \"#utility.yul\":5337:5526   */\n    tag_60:\n        /* \"#utility.yul\":5414:5446   */\n      tag_125\n      tag_59\n      jump\t// in\n    tag_125:\n        /* \"#utility.yul\":5455:5520   */\n      tag_126\n        /* \"#utility.yul\":5513:5519   */\n      dup2\n        /* \"#utility.yul\":5505:5511   */\n      dup5\n        /* \"#utility.yul\":5499:5503   */\n      dup5\n        /* \"#utility.yul\":5455:5520   */\n      tag_58\n      jump\t// in\n    tag_126:\n        /* \"#utility.yul\":5390:5526   */\n      pop\n        /* \"#utility.yul\":5337:5526   */\n      pop\n      pop\n      jump\t// out\n        /* \"#utility.yul\":5532:5718   */\n    tag_61:\n        /* \"#utility.yul\":5592:5712   */\n    tag_128:\n        /* \"#utility.yul\":5609:5612   */\n      dup2\n        /* \"#utility.yul\":5602:5607   */\n      dup2\n        /* \"#utility.yul\":5599:5613   */\n      lt\n        /* \"#utility.yul\":5592:5712   */\n      iszero\n      tag_130\n      jumpi\n        /* \"#utility.yul\":5663:5702   */\n      tag_131\n        /* \"#utility.yul\":5700:5701   */\n      0x00\n        /* \"#utility.yul\":5693:5698   */\n      dup3\n        /* \"#utility.yul\":5663:5702   */\n      tag_60\n      jump\t// in\n    tag_131:\n        /* \"#utility.yul\":5636:5637   */\n      0x01\n        /* \"#utility.yul\":5629:5634   */\n      dup2\n        /* \"#utility.yul\":5625:5638   */\n      add\n        /* \"#utility.yul\":5616:5638   */\n      swap1\n      pop\n        /* \"#utility.yul\":5592:5712   */\n      jump(tag_128)\n    tag_130:\n        /* \"#utility.yul\":5532:5718   */\n      pop\n      pop\n      jump\t// out\n        /* \"#utility.yul\":5724:6267   */\n    tag_62:\n        /* \"#utility.yul\":5825:5827   */\n      0x1f\n        /* \"#utility.yul\":5820:5823   */\n      dup3\n        /* \"#utility.yul\":5817:5828   */\n      gt\n        /* \"#utility.yul\":5814:6260   */\n      iszero\n      tag_133\n      jumpi\n        /* \"#utility.yul\":5859:5897   */\n      tag_134\n        /* \"#utility.yul\":5891:5896   */\n      dup2\n        /* \"#utility.yul\":5859:5897   */\n      tag_50\n      jump\t// in\n    tag_134:\n        /* \"#utility.yul\":5943:5972   */\n      tag_135\n        /* \"#utility.yul\":5961:5971   */\n      dup5\n        /* \"#utility.yul\":5943:5972   */\n      tag_51\n      jump\t// in\n    tag_135:\n        /* \"#utility.yul\":5933:5941   */\n      dup2\n        /* \"#utility.yul\":5929:5973   */\n      add\n        /* \"#utility.yul\":6126:6128   */\n      0x20\n        /* \"#utility.yul\":6114:6124   */\n      dup6\n        /* \"#utility.yul\":6111:6129   */\n      lt\n        /* \"#utility.yul\":6108:6157   */\n      iszero\n      tag_136\n      jumpi\n        /* \"#utility.yul\":6147:6155   */\n      dup2\n        /* \"#utility.yul\":6132:6155   */\n      swap1\n      pop\n        /* \"#utility.yul\":6108:6157   */\n    tag_136:\n        /* \"#utility.yul\":6170:6250   */\n      tag_137\n        /* \"#utility.yul\":6226:6248   */\n      tag_138\n        /* \"#utility.yul\":6244:6247   */\n      dup6\n        /* \"#utility.yul\":6226:6248   */\n      tag_51\n      jump\t// in\n    tag_138:\n        /* \"#utility.yul\":6216:6224   */\n      dup4\n        /* \"#utility.yul\":6212:6249   */\n      add\n        /* \"#utility.yul\":6199:6210   */\n      dup3\n        /* \"#utility.yul\":6170:6250   */\n      tag_61\n      jump\t// in\n    tag_137:\n        /* \"#utility.yul\":5829:6260   */\n      pop\n      pop\n        /* \"#utility.yul\":5814:6260   */\n    tag_133:\n        /* \"#utility.yul\":5724:6267   */\n      pop\n      pop\n      pop\n      jump\t// out\n        /* \"#utility.yul\":6273:6390   */\n    tag_63:\n        /* \"#utility.yul\":6327:6335   */\n      0x00\n        /* \"#utility.yul\":6377:6382   */\n      dup3\n        /* \"#utility.yul\":6371:6375   */\n      dup3\n        /* \"#utility.yul\":6367:6383   */\n      shr\n        /* \"#utility.yul\":6346:6383   */\n      swap1\n      pop\n        /* \"#utility.yul\":6273:6390   */\n      swap3\n      swap2\n      pop\n      pop\n      jump\t// out\n        /* \"#utility.yul\":6396:6565   */\n    tag_64:\n        /* \"#utility.yul\":6440:6446   */\n      0x00\n        /* \"#utility.yul\":6473:6524   */\n      tag_141\n        /* \"#utility.yul\":6521:6522   */\n      0x00\n        /* \"#utility.yul\":6517:6523   */\n      not\n        /* \"#utility.yul\":6509:6514   */\n      dup5\n        /* \"#utility.yul\":6506:6507   */\n      0x08\n        /* \"#utility.yul\":6502:6515   */\n      mul\n        /* \"#utility.yul\":6473:6524   */\n      tag_63\n      jump\t// in\n    tag_141:\n        /* \"#utility.yul\":6469:6525   */\n      not\n        /* \"#utility.yul\":6554:6558   */\n      dup1\n        /* \"#utility.yul\":6548:6552   */\n      dup4\n        /* \"#utility.yul\":6544:6559   */\n      and\n        /* \"#utility.yul\":6534:6559   */\n      swap2\n      pop\n        /* \"#utility.yul\":6447:6565   */\n      pop\n        /* \"#utility.yul\":6396:6565   */\n      swap3\n      swap2\n      pop\n      pop\n      jump\t// out\n        /* \"#utility.yul\":6570:6865   */\n    tag_65:\n        /* \"#utility.yul\":6646:6650   */\n      0x00\n        /* \"#utility.yul\":6792:6821   */\n      tag_143\n        /* \"#utility.yul\":6817:6820   */\n      dup4\n        /* \"#utility.yul\":6811:6815   */\n      dup4\n        /* \"#utility.yul\":6792:6821   */\n      tag_64\n      jump\t// in\n    tag_143:\n        /* \"#utility.yul\":6784:6821   */\n      swap2\n      pop\n        /* \"#utility.yul\":6854:6857   */\n      dup3\n        /* \"#utility.yul\":6851:6852   */\n      0x02\n        /* \"#utility.yul\":6847:6858   */\n      mul\n        /* \"#utility.yul\":6841:6845   */\n      dup3\n        /* \"#utility.yul\":6838:6859   */\n      or\n        /* \"#utility.yul\":6830:6859   */\n      swap1\n      pop\n        /* \"#utility.yul\":6570:6865   */\n      swap3\n      swap2\n      pop\n      pop\n      jump\t// out\n        /* \"#utility.yul\":6870:8273   */\n    tag_25:\n        /* \"#utility.yul\":6994:7038   */\n      tag_145\n        /* \"#utility.yul\":7034:7037   */\n      dup4\n        /* \"#utility.yul\":7029:7032   */\n      dup4\n        /* \"#utility.yul\":6994:7038   */\n      tag_48\n      jump\t// in\n    tag_145:\n        /* \"#utility.yul\":7103:7121   */\n      0xffffffffffffffff\n        /* \"#utility.yul\":7095:7101   */\n      dup2\n        /* \"#utility.yul\":7092:7122   */\n      gt\n        /* \"#utility.yul\":7089:7145   */\n      iszero\n      tag_146\n      jumpi\n        /* \"#utility.yul\":7125:7143   */\n      tag_147\n      tag_49\n      jump\t// in\n    tag_147:\n        /* \"#utility.yul\":7089:7145   */\n    tag_146:\n        /* \"#utility.yul\":7169:7207   */\n      tag_148\n        /* \"#utility.yul\":7201:7205   */\n      dup3\n        /* \"#utility.yul\":7195:7206   */\n      sload\n        /* \"#utility.yul\":7169:7207   */\n      tag_19\n      jump\t// in\n    tag_148:\n        /* \"#utility.yul\":7254:7321   */\n      tag_149\n        /* \"#utility.yul\":7314:7320   */\n      dup3\n        /* \"#utility.yul\":7306:7312   */\n      dup3\n        /* \"#utility.yul\":7300:7304   */\n      dup6\n        /* \"#utility.yul\":7254:7321   */\n      tag_62\n      jump\t// in\n    tag_149:\n        /* \"#utility.yul\":7348:7349   */\n      0x00\n        /* \"#utility.yul\":7377:7379   */\n      0x1f\n        /* \"#utility.yul\":7369:7375   */\n      dup4\n        /* \"#utility.yul\":7366:7380   */\n      gt\n        /* \"#utility.yul\":7394:7395   */\n      0x01\n        /* \"#utility.yul\":7389:8021   */\n      dup2\n      eq\n      tag_151\n      jumpi\n        /* \"#utility.yul\":8065:8066   */\n      0x00\n        /* \"#utility.yul\":8082:8088   */\n      dup5\n        /* \"#utility.yul\":8079:8163   */\n      iszero\n      tag_152\n      jumpi\n        /* \"#utility.yul\":8138:8147   */\n      dup3\n        /* \"#utility.yul\":8133:8136   */\n      dup8\n        /* \"#utility.yul\":8129:8148   */\n      add\n        /* \"#utility.yul\":8116:8149   */\n      calldataload\n        /* \"#utility.yul\":8107:8149   */\n      swap1\n      pop\n        /* \"#utility.yul\":8079:8163   */\n    tag_152:\n        /* \"#utility.yul\":8189:8256   */\n      tag_153\n        /* \"#utility.yul\":8249:8255   */\n      dup6\n        /* \"#utility.yul\":8242:8247   */\n      dup3\n        /* \"#utility.yul\":8189:8256   */\n      tag_65\n      jump\t// in\n    tag_153:\n        /* \"#utility.yul\":8183:8187   */\n      dup7\n        /* \"#utility.yul\":8176:8257   */\n      sstore\n        /* \"#utility.yul\":8038:8267   */\n      pop\n        /* \"#utility.yul\":7359:8267   */\n      jump(tag_150)\n        /* \"#utility.yul\":7389:8021   */\n    tag_151:\n        /* \"#utility.yul\":7441:7445   */\n      0x1f\n        /* \"#utility.yul\":7437:7446   */\n      not\n        /* \"#utility.yul\":7429:7435   */\n      dup5\n        /* \"#utility.yul\":7425:7447   */\n      and\n        /* \"#utility.yul\":7475:7512   */\n      tag_154\n        /* \"#utility.yul\":7507:7511   */\n      dup7\n        /* \"#utility.yul\":7475:7512   */\n      tag_50\n      jump\t// in\n    tag_154:\n        /* \"#utility.yul\":7534:7535   */\n      0x00\n        /* \"#utility.yul\":7548:7763   */\n    tag_155:\n        /* \"#utility.yul\":7562:7569   */\n      dup3\n        /* \"#utility.yul\":7559:7560   */\n      dup2\n        /* \"#utility.yul\":7556:7570   */\n      lt\n        /* \"#utility.yul\":7548:7763   */\n      iszero\n      tag_157\n      jumpi\n        /* \"#utility.yul\":7648:7657   */\n      dup5\n        /* \"#utility.yul\":7643:7646   */\n      dup10\n        /* \"#utility.yul\":7639:7658   */\n      add\n        /* \"#utility.yul\":7626:7659   */\n      calldataload\n        /* \"#utility.yul\":7618:7624   */\n      dup3\n        /* \"#utility.yul\":7611:7660   */\n      sstore\n        /* \"#utility.yul\":7699:7700   */\n      0x01\n        /* \"#utility.yul\":7691:7697   */\n      dup3\n        /* \"#utility.yul\":7687:7701   */\n      add\n        /* \"#utility.yul\":7677:7701   */\n      swap2\n      pop\n        /* \"#utility.yul\":7746:7748   */\n      0x20\n        /* \"#utility.yul\":7735:7744   */\n      dup6\n        /* \"#utility.yul\":7731:7749   */\n      add\n        /* \"#utility.yul\":7718:7749   */\n      swap5\n      pop\n        /* \"#utility.yul\":7585:7589   */\n      0x20\n        /* \"#utility.yul\":7582:7583   */\n      dup2\n        /* \"#utility.yul\":7578:7590   */\n      add\n        /* \"#utility.yul\":7573:7590   */\n      swap1\n      pop\n        /* \"#utility.yul\":7548:7763   */\n      jump(tag_155)\n    tag_157:\n        /* \"#utility.yul\":7791:7797   */\n      dup7\n        /* \"#utility.yul\":7782:7789   */\n      dup4\n        /* \"#utility.yul\":7779:7798   */\n      lt\n        /* \"#utility.yul\":7776:7962   */\n      iszero\n      tag_158\n      jumpi\n        /* \"#utility.yul\":7856:7865   */\n      dup5\n        /* \"#utility.yul\":7851:7854   */\n      dup10\n        /* \"#utility.yul\":7847:7866   */\n      add\n        /* \"#utility.yul\":7834:7867   */\n      calldataload\n        /* \"#utility.yul\":7899:7947   */\n      tag_159\n        /* \"#utility.yul\":7941:7945   */\n      0x1f\n        /* \"#utility.yul\":7933:7939   */\n      dup10\n        /* \"#utility.yul\":7929:7946   */\n      and\n        /* \"#utility.yul\":7918:7927   */\n      dup3\n        /* \"#utility.yul\":7899:7947   */\n      tag_64\n      jump\t// in\n    tag_159:\n        /* \"#utility.yul\":7891:7897   */\n      dup4\n        /* \"#utility.yul\":7884:7948   */\n      sstore\n        /* \"#utility.yul\":7799:7962   */\n      pop\n        /* \"#utility.yul\":7776:7962   */\n    tag_158:\n        /* \"#utility.yul\":8008:8009   */\n      0x01\n        /* \"#utility.yul\":8004:8005   */\n      0x02\n        /* \"#utility.yul\":7996:8002   */\n      dup9\n        /* \"#utility.yul\":7992:8006   */\n      mul\n        /* \"#utility.yul\":7988:8010   */\n      add\n        /* \"#utility.yul\":7982:7986   */\n      dup9\n        /* \"#utility.yul\":7975:8011   */\n      sstore\n        /* \"#utility.yul\":7396:8021   */\n      pop\n      pop\n      pop\n        /* \"#utility.yul\":7359:8267   */\n    tag_150:\n      pop\n        /* \"#utility.yul\":6969:8273   */\n      pop\n      pop\n      pop\n        /* \"#utility.yul\":6870:8273   */\n      pop\n      pop\n      pop\n      jump\t// out\n        /* \"#utility.yul\":8279:8427   */\n    tag_66:\n        /* \"#utility.yul\":8377:8383   */\n      dup3\n        /* \"#utility.yul\":8372:8375   */\n      dup2\n        /* \"#utility.yul\":8367:8370   */\n      dup4\n        /* \"#utility.yul\":8354:8384   */\n      calldatacopy\n        /* \"#utility.yul\":8418:8419   */\n      0x00\n        /* \"#utility.yul\":8409:8415   */\n      dup4\n        /* \"#utility.yul\":8404:8407   */\n      dup4\n        /* \"#utility.yul\":8400:8416   */\n      add\n        /* \"#utility.yul\":8393:8420   */\n      mstore\n        /* \"#utility.yul\":8279:8427   */\n      pop\n      pop\n      pop\n      jump\t// out\n        /* \"#utility.yul\":8457:8774   */\n    tag_67:\n        /* \"#utility.yul\":8555:8558   */\n      0x00\n        /* \"#utility.yul\":8576:8647   */\n      tag_162\n        /* \"#utility.yul\":8640:8646   */\n      dup4\n        /* \"#utility.yul\":8635:8638   */\n      dup6\n        /* \"#utility.yul\":8576:8647   */\n      tag_43\n      jump\t// in\n    tag_162:\n        /* \"#utility.yul\":8569:8647   */\n      swap4\n      pop\n        /* \"#utility.yul\":8657:8713   */\n      tag_163\n        /* \"#utility.yul\":8706:8712   */\n      dup4\n        /* \"#utility.yul\":8701:8704   */\n      dup6\n        /* \"#utility.yul\":8694:8699   */\n      dup5\n        /* \"#utility.yul\":8657:8713   */\n      tag_66\n      jump\t// in\n    tag_163:\n        /* \"#utility.yul\":8738:8767   */\n      tag_164\n        /* \"#utility.yul\":8760:8766   */\n      dup4\n        /* \"#utility.yul\":8738:8767   */\n      tag_45\n      jump\t// in\n    tag_164:\n        /* \"#utility.yul\":8733:8736   */\n      dup5\n        /* \"#utility.yul\":8729:8768   */\n      add\n        /* \"#utility.yul\":8722:8768   */\n      swap1\n      pop\n        /* \"#utility.yul\":8457:8774   */\n      swap4\n      swap3\n      pop\n      pop\n      pop\n      jump\t// out\n        /* \"#utility.yul\":8780:9314   */\n    tag_27:\n        /* \"#utility.yul\":8951:8955   */\n      0x00\n        /* \"#utility.yul\":8989:8991   */\n      0x40\n        /* \"#utility.yul\":8978:8987   */\n      dup3\n        /* \"#utility.yul\":8974:8992   */\n      add\n        /* \"#utility.yul\":8966:8992   */\n      swap1\n      pop\n        /* \"#utility.yul\":9038:9047   */\n      dup2\n        /* \"#utility.yul\":9032:9036   */\n      dup2\n        /* \"#utility.yul\":9028:9048   */\n      sub\n        /* \"#utility.yul\":9024:9025   */\n      0x00\n        /* \"#utility.yul\":9013:9022   */\n      dup4\n        /* \"#utility.yul\":9009:9026   */\n      add\n        /* \"#utility.yul\":9002:9049   */\n      mstore\n        /* \"#utility.yul\":9066:9144   */\n      tag_166\n        /* \"#utility.yul\":9139:9143   */\n      dup2\n        /* \"#utility.yul\":9130:9136   */\n      dup7\n        /* \"#utility.yul\":9066:9144   */\n      tag_46\n      jump\t// in\n    tag_166:\n        /* \"#utility.yul\":9058:9144   */\n      swap1\n      pop\n        /* \"#utility.yul\":9191:9200   */\n      dup2\n        /* \"#utility.yul\":9185:9189   */\n      dup2\n        /* \"#utility.yul\":9181:9201   */\n      sub\n        /* \"#utility.yul\":9176:9178   */\n      0x20\n        /* \"#utility.yul\":9165:9174   */\n      dup4\n        /* \"#utility.yul\":9161:9179   */\n      add\n        /* \"#utility.yul\":9154:9202   */\n      mstore\n        /* \"#utility.yul\":9219:9307   */\n      tag_167\n        /* \"#utility.yul\":9302:9306   */\n      dup2\n        /* \"#utility.yul\":9293:9299   */\n      dup5\n        /* \"#utility.yul\":9285:9291   */\n      dup7\n        /* \"#utility.yul\":9219:9307   */\n      tag_67\n      jump\t// in\n    tag_167:\n        /* \"#utility.yul\":9211:9307   */\n      swap1\n      pop\n        /* \"#utility.yul\":8780:9314   */\n      swap5\n      swap4\n      pop\n      pop\n      pop\n      pop\n      jump\t// out\n\n    auxdata: 0xa2646970667358221220b0852d233751d66953f4353a4c921494522e75e66ba0d178e81c55d4fe4aa54964736f6c634300081e0033\n}\n",
				"bytecode": {
					"linkReferences": {},
					"object": "608060405234801561000f575f5ffd5b50604051610bfe380380610bfe83398181016040528101906100319190610193565b805f908161003f91906103ea565b50506104b9565b5f604051905090565b5f5ffd5b5f5ffd5b5f5ffd5b5f5ffd5b5f601f19601f8301169050919050565b7f4e487b71000000000000000000000000000000000000000000000000000000005f52604160045260245ffd5b6100a58261005f565b810181811067ffffffffffffffff821117156100c4576100c361006f565b5b80604052505050565b5f6100d6610046565b90506100e2828261009c565b919050565b5f67ffffffffffffffff8211156101015761010061006f565b5b61010a8261005f565b9050602081019050919050565b8281835e5f83830152505050565b5f610137610132846100e7565b6100cd565b9050828152602081018484840111156101535761015261005b565b5b61015e848285610117565b509392505050565b5f82601f83011261017a57610179610057565b5b815161018a848260208601610125565b91505092915050565b5f602082840312156101a8576101a761004f565b5b5f82015167ffffffffffffffff8111156101c5576101c4610053565b5b6101d184828501610166565b91505092915050565b5f81519050919050565b7f4e487b71000000000000000000000000000000000000000000000000000000005f52602260045260245ffd5b5f600282049050600182168061022857607f821691505b60208210810361023b5761023a6101e4565b5b50919050565b5f819050815f5260205f209050919050565b5f6020601f8301049050919050565b5f82821b905092915050565b5f6008830261029d7fffffffffffffffffffffffffffffffffffffffffffffffffffffffffffffffff82610262565b6102a78683610262565b95508019841693508086168417925050509392505050565b5f819050919050565b5f819050919050565b5f6102eb6102e66102e1846102bf565b6102c8565b6102bf565b9050919050565b5f819050919050565b610304836102d1565b610318610310826102f2565b84845461026e565b825550505050565b5f5f905090565b61032f610320565b61033a8184846102fb565b505050565b5b8181101561035d576103525f82610327565b600181019050610340565b5050565b601f8211156103a25761037381610241565b61037c84610253565b8101602085101561038b578190505b61039f61039785610253565b83018261033f565b50505b505050565b5f82821c905092915050565b5f6103c25f19846008026103a7565b1980831691505092915050565b5f6103da83836103b3565b9150826002028217905092915050565b6103f3826101da565b67ffffffffffffffff81111561040c5761040b61006f565b5b6104168254610211565b610421828285610361565b5f60209050601f831160018114610452575f8415610440578287015190505b61044a85826103cf565b8655506104b1565b601f19841661046086610241565b5f5b8281101561048757848901518255600182019150602085019450602081019050610462565b868310156104a457848901516104a0601f8916826103b3565b8355505b6001600288020188555050505b505050505050565b610738806104c65f395ff3fe608060405234801561000f575f5ffd5b506004361061003f575f3560e01c80631923be2414610043578063d9203db61461005f578063f3593d4f1461007d575b5f5ffd5b61005d600480360381019061005891906102ac565b61009b565b005b610067610177565b6040516100749190610367565b60405180910390f35b610085610206565b6040516100929190610367565b60405180910390f35b5f5f80546100a8906103b4565b80601f01602080910402602001604051908101604052809291908181526020018280546100d4906103b4565b801561011f5780601f106100f65761010080835404028352916020019161011f565b820191905f5260205f20905b81548152906001019060200180831161010257829003601f168201915b5050505050905082825f91826101369291906105c4565b507f5f39fb9255c1b6ac340f9d398daf534d7efd9290c2f50c92353a6c16ecae84ba81848460405161016a939291906106cb565b60405180910390a1505050565b60605f8054610185906103b4565b80601f01602080910402602001604051908101604052809291908181526020018280546101b1906103b4565b80156101fc5780601f106101d3576101008083540402835291602001916101fc565b820191905f5260205f20905b8154815290600101906020018083116101df57829003601f168201915b5050505050905090565b60606040518060400160405280600c81526020017f48656c6c6f20576f726c64210000000000000000000000000000000000000000815250905090565b5f5ffd5b5f5ffd5b5f5ffd5b5f5ffd5b5f5ffd5b5f5f83601f84011261026c5761026b61024b565b5b8235905067ffffffffffffffff8111156102895761028861024f565b5b6020830191508360018202830111156102a5576102a4610253565b5b9250929050565b5f5f602083850312156102c2576102c1610243565b5b5f83013567ffffffffffffffff8111156102df576102de610247565b5b6102eb85828601610257565b92509250509250929050565b5f81519050919050565b5f82825260208201905092915050565b8281835e5f83830152505050565b5f601f19601f8301169050919050565b5f610339826102f7565b6103438185610301565b9350610353818560208601610311565b61035c8161031f565b840191505092915050565b5f6020820190508181035f83015261037f818461032f565b905092915050565b7f4e487b71000000000000000000000000000000000000000000000000000000005f52602260045260245ffd5b5f60028204905060018216806103cb57607f821691505b6020821081036103de576103dd610387565b5b50919050565b5f82905092915050565b7f4e487b71000000000000000000000000000000000000000000000000000000005f52604160045260245ffd5b5f819050815f5260205f209050919050565b5f6020601f8301049050919050565b5f82821b905092915050565b5f600883026104777fffffffffffffffffffffffffffffffffffffffffffffffffffffffffffffffff8261043c565b610481868361043c565b95508019841693508086168417925050509392505050565b5f819050919050565b5f819050919050565b5f6104c56104c06104bb84610499565b6104a2565b610499565b9050919050565b5f819050919050565b6104de836104ab565b6104f26104ea826104cc565b848454610448565b825550505050565b5f5f905090565b6105096104fa565b6105148184846104d5565b505050565b5b818110156105375761052c5f82610501565b60018101905061051a565b5050565b601f82111561057c5761054d8161041b565b6105568461042d565b81016020851015610565578190505b6105796105718561042d565b830182610519565b50505b505050565b5f82821c905092915050565b5f61059c5f1984600802610581565b1980831691505092915050565b5f6105b4838361058d565b9150826002028217905092915050565b6105ce83836103e4565b67ffffffffffffffff8111156105e7576105e66103ee565b5b6105f182546103b4565b6105fc82828561053b565b5f601f831160018114610629575f8415610617578287013590505b61062185826105a9565b865550610688565b601f1984166106378661041b565b5f5b8281101561065e57848901358255600182019150602085019450602081019050610639565b8683101561067b5784890135610677601f89168261058d565b8355505b6001600288020188555050505b50505050505050565b828183375f83830152505050565b5f6106aa8385610301565b93506106b7838584610691565b6106c08361031f565b840190509392505050565b5f6040820190508181035f8301526106e3818661032f565b905081810360208301526106f881848661069f565b905094935050505056fea2646970667358221220b0852d233751d66953f4353a4c921494522e75e66ba0d178e81c55d4fe4aa54964736f6c634300081e0033",
					"opcodes": "PUSH1 0x80 PUSH1 0x40 MSTORE CALLVALUE DUP1 ISZERO PUSH2 0xF JUMPI PUSH0 PUSH0 REVERT JUMPDEST POP PUSH1 0x40 MLOAD PUSH2 0xBFE CODESIZE SUB DUP1 PUSH2 0xBFE DUP4 CODECOPY DUP2 DUP2 ADD PUSH1 0x40 MSTORE DUP2 ADD SWAP1 PUSH2 0x31 SWAP2 SWAP1 PUSH2 0x193 JUMP JUMPDEST DUP1 PUSH0 SWAP1 DUP2 PUSH2 0x3F SWAP2 SWAP1 PUSH2 0x3EA JUMP JUMPDEST POP POP PUSH2 0x4B9 JUMP JUMPDEST PUSH0 PUSH1 0x40 MLOAD SWAP1 POP SWAP1 JUMP JUMPDEST PUSH0 PUSH0 REVERT JUMPDEST PUSH0 PUSH0 REVERT JUMPDEST PUSH0 PUSH0 REVERT JUMPDEST PUSH0 PUSH0 REVERT JUMPDEST PUSH0 PUSH1 0x1F NOT PUSH1 0x1F DUP4 ADD AND SWAP1 POP SWAP2 SWAP1 POP JUMP JUMPDEST PUSH32 0x4E487B7100000000000000000000000000000000000000000000000000000000 PUSH0 MSTORE PUSH1 0x41 PUSH1 0x4 MSTORE PUSH1 0x24 PUSH0 REVERT JUMPDEST PUSH2 0xA5 DUP3 PUSH2 0x5F JUMP JUMPDEST DUP2 ADD DUP2 DUP2 LT PUSH8 0xFFFFFFFFFFFFFFFF DUP3 GT OR ISZERO PUSH2 0xC4 JUMPI PUSH2 0xC3 PUSH2 0x6F JUMP JUMPDEST JUMPDEST DUP1 PUSH1 0x40 MSTORE POP POP POP JUMP JUMPDEST PUSH0 PUSH2 0xD6 PUSH2 0x46 JUMP JUMPDEST SWAP1 POP PUSH2 0xE2 DUP3 DUP3 PUSH2 0x9C JUMP JUMPDEST SWAP2 SWAP1 POP JUMP JUMPDEST PUSH0 PUSH8 0xFFFFFFFFFFFFFFFF DUP3 GT ISZERO PUSH2 0x101 JUMPI PUSH2 0x100 PUSH2 0x6F JUMP JUMPDEST JUMPDEST PUSH2 0x10A DUP3 PUSH2 0x5F JUMP JUMPDEST SWAP1 POP PUSH1 0x20 DUP2 ADD SWAP1 POP SWAP2 SWAP1 POP JUMP JUMPDEST DUP3 DUP2 DUP4 MCOPY PUSH0 DUP4 DUP4 ADD MSTORE POP POP POP JUMP JUMPDEST PUSH0 PUSH2 0x137 PUSH2 0x132 DUP5 PUSH2 0xE7 JUMP JUMPDEST PUSH2 0xCD JUMP JUMPDEST SWAP1 POP DUP3 DUP2 MSTORE PUSH1 0x20 DUP2 ADD DUP5 DUP5 DUP5 ADD GT ISZERO PUSH2 0x153 JUMPI PUSH2 0x152 PUSH2 0x5B JUMP JUMPDEST JUMPDEST PUSH2 0x15E DUP5 DUP3 DUP6 PUSH2 0x117 JUMP JUMPDEST POP SWAP4 SWAP3 POP POP POP JUMP JUMPDEST PUSH0 DUP3 PUSH1 0x1F DUP4 ADD SLT PUSH2 0x17A JUMPI PUSH2 0x179 PUSH2 0x57 JUMP JUMPDEST JUMPDEST DUP2 MLOAD PUSH2 0x18A DUP5 DUP3 PUSH1 0x20 DUP7 ADD PUSH2 0x125 JUMP JUMPDEST SWAP2 POP POP SWAP3 SWAP2 POP POP JUMP JUMPDEST PUSH0 PUSH1 0x20 DUP3 DUP5 SUB SLT ISZERO PUSH2 0x1A8 JUMPI PUSH2 0x1A7 PUSH2 0x4F JUMP JUMPDEST JUMPDEST PUSH0 DUP3 ADD MLOAD PUSH8 0xFFFFFFFFFFFFFFFF DUP2 GT ISZERO PUSH2 0x1C5 JUMPI PUSH2 0x1C4 PUSH2 0x53 JUMP JUMPDEST JUMPDEST PUSH2 0x1D1 DUP5 DUP3 DUP6 ADD PUSH2 0x166 JUMP JUMPDEST SWAP2 POP POP SWAP3 SWAP2 POP POP JUMP JUMPDEST PUSH0 DUP2 MLOAD SWAP1 POP SWAP2 SWAP1 POP JUMP JUMPDEST PUSH32 0x4E487B7100000000000000000000000000000000000000000000000000000000 PUSH0 MSTORE PUSH1 0x22 PUSH1 0x4 MSTORE PUSH1 0x24 PUSH0 REVERT JUMPDEST PUSH0 PUSH1 0x2 DUP3 DIV SWAP1 POP PUSH1 0x1 DUP3 AND DUP1 PUSH2 0x228 JUMPI PUSH1 0x7F DUP3 AND SWAP2 POP JUMPDEST PUSH1 0x20 DUP3 LT DUP2 SUB PUSH2 0x23B JUMPI PUSH2 0x23A PUSH2 0x1E4 JUMP JUMPDEST JUMPDEST POP SWAP2 SWAP1 POP JUMP JUMPDEST PUSH0 DUP2 SWAP1 POP DUP2 PUSH0 MSTORE PUSH1 0x20 PUSH0 KECCAK256 SWAP1 POP SWAP2 SWAP1 POP JUMP JUMPDEST PUSH0 PUSH1 0x20 PUSH1 0x1F DUP4 ADD DIV SWAP1 POP SWAP2 SWAP1 POP JUMP JUMPDEST PUSH0 DUP3 DUP3 SHL SWAP1 POP SWAP3 SWAP2 POP POP JUMP JUMPDEST PUSH0 PUSH1 0x8 DUP4 MUL PUSH2 0x29D PUSH32 0xFFFFFFFFFFFFFFFFFFFFFFFFFFFFFFFFFFFFFFFFFFFFFFFFFFFFFFFFFFFFFFFF DUP3 PUSH2 0x262 JUMP JUMPDEST PUSH2 0x2A7 DUP7 DUP4 PUSH2 0x262 JUMP JUMPDEST SWAP6 POP DUP1 NOT DUP5 AND SWAP4 POP DUP1 DUP7 AND DUP5 OR SWAP3 POP POP POP SWAP4 SWAP3 POP POP POP JUMP JUMPDEST PUSH0 DUP2 SWAP1 POP SWAP2 SWAP1 POP JUMP JUMPDEST PUSH0 DUP2 SWAP1 POP SWAP2 SWAP1 POP JUMP JUMPDEST PUSH0 PUSH2 0x2EB PUSH2 0x2E6 PUSH2 0x2E1 DUP5 PUSH2 0x2BF JUMP JUMPDEST PUSH2 0x2C8 JUMP JUMPDEST PUSH2 0x2BF JUMP JUMPDEST SWAP1 POP SWAP2 SWAP1 POP JUMP JUMPDEST PUSH0 DUP2 SWAP1 POP SWAP2 SWAP1 POP JUMP JUMPDEST PUSH2 0x304 DUP4 PUSH2 0x2D1 JUMP JUMPDEST PUSH2 0x318 PUSH2 0x310 DUP3 PUSH2 0x2F2 JUMP JUMPDEST DUP5 DUP5 SLOAD PUSH2 0x26E JUMP JUMPDEST DUP3 SSTORE POP POP POP POP JUMP JUMPDEST PUSH0 PUSH0 SWAP1 POP SWAP1 JUMP JUMPDEST PUSH2 0x32F PUSH2 0x320 JUMP JUMPDEST PUSH2 0x33A DUP2 DUP5 DUP5 PUSH2 0x2FB JUMP JUMPDEST POP POP POP JUMP JUMPDEST JUMPDEST DUP2 DUP2 LT ISZERO PUSH2 0x35D JUMPI PUSH2 0x352 PUSH0 DUP3 PUSH2 0x327 JUMP JUMPDEST PUSH1 0x1 DUP2 ADD SWAP1 POP PUSH2 0x340 JUMP JUMPDEST POP POP JUMP JUMPDEST PUSH1 0x1F DUP3 GT ISZERO PUSH2 0x3A2 JUMPI PUSH2 0x373 DUP2 PUSH2 0x241 JUMP JUMPDEST PUSH2 0x37C DUP5 PUSH2 0x253 JUMP JUMPDEST DUP2 ADD PUSH1 0x20 DUP6 LT ISZERO PUSH2 0x38B JUMPI DUP2 SWAP1 POP JUMPDEST PUSH2 0x39F PUSH2 0x397 DUP6 PUSH2 0x253 JUMP JUMPDEST DUP4 ADD DUP3 PUSH2 0x33F JUMP JUMPDEST POP POP JUMPDEST POP POP POP JUMP JUMPDEST PUSH0 DUP3 DUP3 SHR SWAP1 POP SWAP3 SWAP2 POP POP JUMP JUMPDEST PUSH0 PUSH2 0x3C2 PUSH0 NOT DUP5 PUSH1 0x8 MUL PUSH2 0x3A7 JUMP JUMPDEST NOT DUP1 DUP4 AND SWAP2 POP POP SWAP3 SWAP2 POP POP JUMP JUMPDEST PUSH0 PUSH2 0x3DA DUP4 DUP4 PUSH2 0x3B3 JUMP JUMPDEST SWAP2 POP DUP3 PUSH1 0x2 MUL DUP3 OR SWAP1 POP SWAP3 SWAP2 POP POP JUMP JUMPDEST PUSH2 0x3F3 DUP3 PUSH2 0x1DA JUMP JUMPDEST PUSH8 0xFFFFFFFFFFFFFFFF DUP2 GT ISZERO PUSH2 0x40C JUMPI PUSH2 0x40B PUSH2 0x6F JUMP JUMPDEST JUMPDEST PUSH2 0x416 DUP3 SLOAD PUSH2 0x211 JUMP JUMPDEST PUSH2 0x421 DUP3 DUP3 DUP6 PUSH2 0x361 JUMP JUMPDEST PUSH0 PUSH1 0x20 SWAP1 POP PUSH1 0x1F DUP4 GT PUSH1 0x1 DUP2 EQ PUSH2 0x452 JUMPI PUSH0 DUP5 ISZERO PUSH2 0x440 JUMPI DUP3 DUP8 ADD MLOAD SWAP1 POP JUMPDEST PUSH2 0x44A DUP6 DUP3 PUSH2 0x3CF JUMP JUMPDEST DUP7 SSTORE POP PUSH2 0x4B1 JUMP JUMPDEST PUSH1 0x1F NOT DUP5 AND PUSH2 0x460 DUP7 PUSH2 0x241 JUMP JUMPDEST PUSH0 JUMPDEST DUP3 DUP2 LT ISZERO PUSH2 0x487 JUMPI DUP5 DUP10 ADD MLOAD DUP3 SSTORE PUSH1 0x1 DUP3 ADD SWAP2 POP PUSH1 0x20 DUP6 ADD SWAP5 POP PUSH1 0x20 DUP2 ADD SWAP1 POP PUSH2 0x462 JUMP JUMPDEST DUP7 DUP4 LT ISZERO PUSH2 0x4A4 JUMPI DUP5 DUP10 ADD MLOAD PUSH2 0x4A0 PUSH1 0x1F DUP10 AND DUP3 PUSH2 0x3B3 JUMP JUMPDEST DUP4 SSTORE POP JUMPDEST PUSH1 0x1 PUSH1 0x2 DUP9 MUL ADD DUP9 SSTORE POP POP POP JUMPDEST POP POP POP POP POP POP JUMP JUMPDEST PUSH2 0x738 DUP1 PUSH2 0x4C6 PUSH0 CODECOPY PUSH0 RETURN INVALID PUSH1 0x80 PUSH1 0x40 MSTORE CALLVALUE DUP1 ISZERO PUSH2 0xF JUMPI PUSH0 PUSH0 REVERT JUMPDEST POP PUSH1 0x4 CALLDATASIZE LT PUSH2 0x3F JUMPI PUSH0 CALLDATALOAD PUSH1 0xE0 SHR DUP1 PUSH4 0x1923BE24 EQ PUSH2 0x43 JUMPI DUP1 PUSH4 0xD9203DB6 EQ PUSH2 0x5F JUMPI DUP1 PUSH4 0xF3593D4F EQ PUSH2 0x7D JUMPI JUMPDEST PUSH0 PUSH0 REVERT JUMPDEST PUSH2 0x5D PUSH1 0x4 DUP1 CALLDATASIZE SUB DUP2 ADD SWAP1 PUSH2 0x58 SWAP2 SWAP1 PUSH2 0x2AC JUMP JUMPDEST PUSH2 0x9B JUMP JUMPDEST STOP JUMPDEST PUSH2 0x67 PUSH2 0x177 JUMP JUMPDEST PUSH1 0x40 MLOAD PUSH2 0x74 SWAP2 SWAP1 PUSH2 0x367 JUMP JUMPDEST PUSH1 0x40 MLOAD DUP1 SWAP2 SUB SWAP1 RETURN JUMPDEST PUSH2 0x85 PUSH2 0x206 JUMP JUMPDEST PUSH1 0x40 MLOAD PUSH2 0x92 SWAP2 SWAP1 PUSH2 0x367 JUMP JUMPDEST PUSH1 0x40 MLOAD DUP1 SWAP2 SUB SWAP1 RETURN JUMPDEST PUSH0 PUSH0 DUP1 SLOAD PUSH2 0xA8 SWAP1 PUSH2 0x3B4 JUMP JUMPDEST DUP1 PUSH1 0x1F ADD PUSH1 0x20 DUP1 SWAP2 DIV MUL PUSH1 0x20 ADD PUSH1 0x40 MLOAD SWAP1 DUP2 ADD PUSH1 0x40 MSTORE DUP1 SWAP3 SWAP2 SWAP1 DUP2 DUP2 MSTORE PUSH1 0x20 ADD DUP3 DUP1 SLOAD PUSH2 0xD4 SWAP1 PUSH2 0x3B4 JUMP JUMPDEST DUP1 ISZERO PUSH2 0x11F JUMPI DUP1 PUSH1 0x1F LT PUSH2 0xF6 JUMPI PUSH2 0x100 DUP1 DUP4 SLOAD DIV MUL DUP4 MSTORE SWAP2 PUSH1 0x20 ADD SWAP2 PUSH2 0x11F JUMP JUMPDEST DUP3 ADD SWAP2 SWAP1 PUSH0 MSTORE PUSH1 0x20 PUSH0 KECCAK256 SWAP1 JUMPDEST DUP2 SLOAD DUP2 MSTORE SWAP1 PUSH1 0x1 ADD SWAP1 PUSH1 0x20 ADD DUP1 DUP4 GT PUSH2 0x102 JUMPI DUP3 SWAP1 SUB PUSH1 0x1F AND DUP3 ADD SWAP2 JUMPDEST POP POP POP POP POP SWAP1 POP DUP3 DUP3 PUSH0 SWAP2 DUP3 PUSH2 0x136 SWAP3 SWAP2 SWAP1 PUSH2 0x5C4 JUMP JUMPDEST POP PUSH32 0x5F39FB9255C1B6AC340F9D398DAF534D7EFD9290C2F50C92353A6C16ECAE84BA DUP2 DUP5 DUP5 PUSH1 0x40 MLOAD PUSH2 0x16A SWAP4 SWAP3 SWAP2 SWAP1 PUSH2 0x6CB JUMP JUMPDEST PUSH1 0x40 MLOAD DUP1 SWAP2 SUB SWAP1 LOG1 POP POP POP JUMP JUMPDEST PUSH1 0x60 PUSH0 DUP1 SLOAD PUSH2 0x185 SWAP1 PUSH2 0x3B4 JUMP JUMPDEST DUP1 PUSH1 0x1F ADD PUSH1 0x20 DUP1 SWAP2 DIV MUL PUSH1 0x20 ADD PUSH1 0x40 MLOAD SWAP1 DUP2 ADD PUSH1 0x40 MSTORE DUP1 SWAP3 SWAP2 SWAP1 DUP2 DUP2 MSTORE PUSH1 0x20 ADD DUP3 DUP1 SLOAD PUSH2 0x1B1 SWAP1 PUSH2 0x3B4 JUMP JUMPDEST DUP1 ISZERO PUSH2 0x1FC JUMPI DUP1 PUSH1 0x1F LT PUSH2 0x1D3 JUMPI PUSH2 0x100 DUP1 DUP4 SLOAD DIV MUL DUP4 MSTORE SWAP2 PUSH1 0x20 ADD SWAP2 PUSH2 0x1FC JUMP JUMPDEST DUP3 ADD SWAP2 SWAP1 PUSH0 MSTORE PUSH1 0x20 PUSH0 KECCAK256 SWAP1 JUMPDEST DUP2 SLOAD DUP2 MSTORE SWAP1 PUSH1 0x1 ADD SWAP1 PUSH1 0x20 ADD DUP1 DUP4 GT PUSH2 0x1DF JUMPI DUP3 SWAP1 SUB PUSH1 0x1F AND DUP3 ADD SWAP2 JUMPDEST POP POP POP POP POP SWAP1 POP SWAP1 JUMP JUMPDEST PUSH1 0x60 PUSH1 0x40 MLOAD DUP1 PUSH1 0x40 ADD PUSH1 0x40 MSTORE DUP1 PUSH1 0xC DUP2 MSTORE PUSH1 0x20 ADD PUSH32 0x48656C6C6F20576F726C64210000000000000000000000000000000000000000 DUP2 MSTORE POP SWAP1 POP SWAP1 JUMP JUMPDEST PUSH0 PUSH0 REVERT JUMPDEST PUSH0 PUSH0 REVERT JUMPDEST PUSH0 PUSH0 REVERT JUMPDEST PUSH0 PUSH0 REVERT JUMPDEST PUSH0 PUSH0 REVERT JUMPDEST PUSH0 PUSH0 DUP4 PUSH1 0x1F DUP5 ADD SLT PUSH2 0x26C JUMPI PUSH2 0x26B PUSH2 0x24B JUMP JUMPDEST JUMPDEST DUP3 CALLDATALOAD SWAP1 POP PUSH8 0xFFFFFFFFFFFFFFFF DUP2 GT ISZERO PUSH2 0x289 JUMPI PUSH2 0x288 PUSH2 0x24F JUMP JUMPDEST JUMPDEST PUSH1 0x20 DUP4 ADD SWAP2 POP DUP4 PUSH1 0x1 DUP3 MUL DUP4 ADD GT ISZERO PUSH2 0x2A5 JUMPI PUSH2 0x2A4 PUSH2 0x253 JUMP JUMPDEST JUMPDEST SWAP3 POP SWAP3 SWAP1 POP JUMP JUMPDEST PUSH0 PUSH0 PUSH1 0x20 DUP4 DUP6 SUB SLT ISZERO PUSH2 0x2C2 JUMPI PUSH2 0x2C1 PUSH2 0x243 JUMP JUMPDEST JUMPDEST PUSH0 DUP4 ADD CALLDATALOAD PUSH8 0xFFFFFFFFFFFFFFFF DUP2 GT ISZERO PUSH2 0x2DF JUMPI PUSH2 0x2DE PUSH2 0x247 JUMP JUMPDEST JUMPDEST PUSH2 0x2EB DUP6 DUP3 DUP7 ADD PUSH2 0x257 JUMP JUMPDEST SWAP3 POP SWAP3 POP POP SWAP3 POP SWAP3 SWAP1 POP JUMP JUMPDEST PUSH0 DUP2 MLOAD SWAP1 POP SWAP2 SWAP1 POP JUMP JUMPDEST PUSH0 DUP3 DUP3 MSTORE PUSH1 0x20 DUP3 ADD SWAP1 POP SWAP3 SWAP2 POP POP JUMP JUMPDEST DUP3 DUP2 DUP4 MCOPY PUSH0 DUP4 DUP4 ADD MSTORE POP POP POP JUMP JUMPDEST PUSH0 PUSH1 0x1F NOT PUSH1 0x1F DUP4 ADD AND SWAP1 POP SWAP2 SWAP1 POP JUMP JUMPDEST PUSH0 PUSH2 0x339 DUP3 PUSH2 0x2F7 JUMP JUMPDEST PUSH2 0x343 DUP2 DUP6 PUSH2 0x301 JUMP JUMPDEST SWAP4 POP PUSH2 0x353 DUP2 DUP6 PUSH1 0x20 DUP7 ADD PUSH2 0x311 JUMP JUMPDEST PUSH2 0x35C DUP2 PUSH2 0x31F JUMP JUMPDEST DUP5 ADD SWAP2 POP POP SWAP3 SWAP2 POP POP JUMP JUMPDEST PUSH0 PUSH1 0x20 DUP3 ADD SWAP1 POP DUP2 DUP2 SUB PUSH0 DUP4 ADD MSTORE PUSH2 0x37F DUP2 DUP5 PUSH2 0x32F JUMP JUMPDEST SWAP1 POP SWAP3 SWAP2 POP POP JUMP JUMPDEST PUSH32 0x4E487B7100000000000000000000000000000000000000000000000000000000 PUSH0 MSTORE PUSH1 0x22 PUSH1 0x4 MSTORE PUSH1 0x24 PUSH0 REVERT JUMPDEST PUSH0 PUSH1 0x2 DUP3 DIV SWAP1 POP PUSH1 0x1 DUP3 AND DUP1 PUSH2 0x3CB JUMPI PUSH1 0x7F DUP3 AND SWAP2 POP JUMPDEST PUSH1 0x20 DUP3 LT DUP2 SUB PUSH2 0x3DE JUMPI PUSH2 0x3DD PUSH2 0x387 JUMP JUMPDEST JUMPDEST POP SWAP2 SWAP1 POP JUMP JUMPDEST PUSH0 DUP3 SWAP1 POP SWAP3 SWAP2 POP POP JUMP JUMPDEST PUSH32 0x4E487B7100000000000000000000000000000000000000000000000000000000 PUSH0 MSTORE PUSH1 0x41 PUSH1 0x4 MSTORE PUSH1 0x24 PUSH0 REVERT JUMPDEST PUSH0 DUP2 SWAP1 POP DUP2 PUSH0 MSTORE PUSH1 0x20 PUSH0 KECCAK256 SWAP1 POP SWAP2 SWAP1 POP JUMP JUMPDEST PUSH0 PUSH1 0x20 PUSH1 0x1F DUP4 ADD DIV SWAP1 POP SWAP2 SWAP1 POP JUMP JUMPDEST PUSH0 DUP3 DUP3 SHL SWAP1 POP SWAP3 SWAP2 POP POP JUMP JUMPDEST PUSH0 PUSH1 0x8 DUP4 MUL PUSH2 0x477 PUSH32 0xFFFFFFFFFFFFFFFFFFFFFFFFFFFFFFFFFFFFFFFFFFFFFFFFFFFFFFFFFFFFFFFF DUP3 PUSH2 0x43C JUMP JUMPDEST PUSH2 0x481 DUP7 DUP4 PUSH2 0x43C JUMP JUMPDEST SWAP6 POP DUP1 NOT DUP5 AND SWAP4 POP DUP1 DUP7 AND DUP5 OR SWAP3 POP POP POP SWAP4 SWAP3 POP POP POP JUMP JUMPDEST PUSH0 DUP2 SWAP1 POP SWAP2 SWAP1 POP JUMP JUMPDEST PUSH0 DUP2 SWAP1 POP SWAP2 SWAP1 POP JUMP JUMPDEST PUSH0 PUSH2 0x4C5 PUSH2 0x4C0 PUSH2 0x4BB DUP5 PUSH2 0x499 JUMP JUMPDEST PUSH2 0x4A2 JUMP JUMPDEST PUSH2 0x499 JUMP JUMPDEST SWAP1 POP SWAP2 SWAP1 POP JUMP JUMPDEST PUSH0 DUP2 SWAP1 POP SWAP2 SWAP1 POP JUMP JUMPDEST PUSH2 0x4DE DUP4 PUSH2 0x4AB JUMP JUMPDEST PUSH2 0x4F2 PUSH2 0x4EA DUP3 PUSH2 0x4CC JUMP JUMPDEST DUP5 DUP5 SLOAD PUSH2 0x448 JUMP JUMPDEST DUP3 SSTORE POP POP POP POP JUMP JUMPDEST PUSH0 PUSH0 SWAP1 POP SWAP1 JUMP JUMPDEST PUSH2 0x509 PUSH2 0x4FA JUMP JUMPDEST PUSH2 0x514 DUP2 DUP5 DUP5 PUSH2 0x4D5 JUMP JUMPDEST POP POP POP JUMP JUMPDEST JUMPDEST DUP2 DUP2 LT ISZERO PUSH2 0x537 JUMPI PUSH2 0x52C PUSH0 DUP3 PUSH2 0x501 JUMP JUMPDEST PUSH1 0x1 DUP2 ADD SWAP1 POP PUSH2 0x51A JUMP JUMPDEST POP POP JUMP JUMPDEST PUSH1 0x1F DUP3 GT ISZERO PUSH2 0x57C JUMPI PUSH2 0x54D DUP2 PUSH2 0x41B JUMP JUMPDEST PUSH2 0x556 DUP5 PUSH2 0x42D JUMP JUMPDEST DUP2 ADD PUSH1 0x20 DUP6 LT ISZERO PUSH2 0x565 JUMPI DUP2 SWAP1 POP JUMPDEST PUSH2 0x579 PUSH2 0x571 DUP6 PUSH2 0x42D JUMP JUMPDEST DUP4 ADD DUP3 PUSH2 0x519 JUMP JUMPDEST POP POP JUMPDEST POP POP POP JUMP JUMPDEST PUSH0 DUP3 DUP3 SHR SWAP1 POP SWAP3 SWAP2 POP POP JUMP JUMPDEST PUSH0 PUSH2 0x59C PUSH0 NOT DUP5 PUSH1 0x8 MUL PUSH2 0x581 JUMP JUMPDEST NOT DUP1 DUP4 AND SWAP2 POP POP SWAP3 SWAP2 POP POP JUMP JUMPDEST PUSH0 PUSH2 0x5B4 DUP4 DUP4 PUSH2 0x58D JUMP JUMPDEST SWAP2 POP DUP3 PUSH1 0x2 MUL DUP3 OR SWAP1 POP SWAP3 SWAP2 POP POP JUMP JUMPDEST PUSH2 0x5CE DUP4 DUP4 PUSH2 0x3E4 JUMP JUMPDEST PUSH8 0xFFFFFFFFFFFFFFFF DUP2 GT ISZERO PUSH2 0x5E7 JUMPI PUSH2 0x5E6 PUSH2 0x3EE JUMP JUMPDEST JUMPDEST PUSH2 0x5F1 DUP3 SLOAD PUSH2 0x3B4 JUMP JUMPDEST PUSH2 0x5FC DUP3 DUP3 DUP6 PUSH2 0x53B JUMP JUMPDEST PUSH0 PUSH1 0x1F DUP4 GT PUSH1 0x1 DUP2 EQ PUSH2 0x629 JUMPI PUSH0 DUP5 ISZERO PUSH2 0x617 JUMPI DUP3 DUP8 ADD CALLDATALOAD SWAP1 POP JUMPDEST PUSH2 0x621 DUP6 DUP3 PUSH2 0x5A9 JUMP JUMPDEST DUP7 SSTORE POP PUSH2 0x688 JUMP JUMPDEST PUSH1 0x1F NOT DUP5 AND PUSH2 0x637 DUP7 PUSH2 0x41B JUMP JUMPDEST PUSH0 JUMPDEST DUP3 DUP2 LT ISZERO PUSH2 0x65E JUMPI DUP5 DUP10 ADD CALLDATALOAD DUP3 SSTORE PUSH1 0x1 DUP3 ADD SWAP2 POP PUSH1 0x20 DUP6 ADD SWAP5 POP PUSH1 0x20 DUP2 ADD SWAP1 POP PUSH2 0x639 JUMP JUMPDEST DUP7 DUP4 LT ISZERO PUSH2 0x67B JUMPI DUP5 DUP10 ADD CALLDATALOAD PUSH2 0x677 PUSH1 0x1F DUP10 AND DUP3 PUSH2 0x58D JUMP JUMPDEST DUP4 SSTORE POP JUMPDEST PUSH1 0x1 PUSH1 0x2 DUP9 MUL ADD DUP9 SSTORE POP POP POP JUMPDEST POP POP POP POP POP POP POP JUMP JUMPDEST DUP3 DUP2 DUP4 CALLDATACOPY PUSH0 DUP4 DUP4 ADD MSTORE POP POP POP JUMP JUMPDEST PUSH0 PUSH2 0x6AA DUP4 DUP6 PUSH2 0x301 JUMP JUMPDEST SWAP4 POP PUSH2 0x6B7 DUP4 DUP6 DUP5 PUSH2 0x691 JUMP JUMPDEST PUSH2 0x6C0 DUP4 PUSH2 0x31F JUMP JUMPDEST DUP5 ADD SWAP1 POP SWAP4 SWAP3 POP POP POP JUMP JUMPDEST PUSH0 PUSH1 0x40 DUP3 ADD SWAP1 POP DUP2 DUP2 SUB PUSH0 DUP4 ADD MSTORE PUSH2 0x6E3 DUP2 DUP7 PUSH2 0x32F JUMP JUMPDEST SWAP1 POP DUP2 DUP2 SUB PUSH1 0x20 DUP4 ADD MSTORE PUSH2 0x6F8 DUP2 DUP5 DUP7 PUSH2 0x69F JUMP JUMPDEST SWAP1 POP SWAP5 SWAP4 POP POP POP POP JUMP INVALID LOG2 PUSH5 0x6970667358 0x22 SLT KECCAK256 0xB0 DUP6 0x2D 0x23 CALLDATACOPY MLOAD 0xD6 PUSH10 0x53F4353A4C921494522E PUSH22 0xE66BA0D178E81C55D4FE4AA54964736F6C634300081E STOP CALLER "
				},
				"gasEstimates": {
					"creation": {
						"codeDepositCost": "369600",
						"executionCost": "infinite",
						"totalCost": "infinite"
					},
					"external": {
						"currentMessage()": "infinite",
						"helloConstant()": "infinite",
						"updateMessage(string)": "infinite"
					}
				},
				"methodIdentifiers": {
					"currentMessage()": "d9203db6",
					"helloConstant()": "f3593d4f",
					"updateMessage(string)": "1923be24"
				}
			},
			"storageLayout": {
				"storage": [
					{
						"astId": 5,
						"contract": ".deps/giorno0.sol:SimpleMessenger",
						"label": "_message",
						"offset": 0,
						"slot": "0",
						"type": "t_string_storage"
					}
				],
				"types": {
					"t_string_storage": {
						"encoding": "bytes",
						"label": "string",
						"numberOfBytes": "32"
					}
				}
			},
			"userdoc": {
				"events": {
					"MessageChanged(string,string)": {
						"notice": "Emesso quando qualcuno cambia il messaggio"
					}
				},
				"kind": "user",
				"methods": {
					"currentMessage()": {
						"notice": "Ritorna l’ultimo messaggio salvato (solo lettura)"
					},
					"helloConstant()": {
						"notice": "Un “Hello World” puro, senza accesso allo storage"
					},
					"updateMessage(string)": {
						"notice": "Aggiorna il messaggio permanente"
					}
				},
				"notice": "Esempio didattico per Remix: storage vs memory, eventi, visibilità",
				"version": 1
			}
		}
	}
}